S00E00004755494170702E7372656310
S31500000000385A0520E9EF01005DEA0100E5EF01003D
S31500000010E5EF0100E5EF0100E5EF0100000000005B
S31500000020000000000000000000000000E5EF0100F5
S31500000030E5EF01000000000055B70300FDB703001F
S3150000004009D4010009D40100F598000035EC000040
S3150000005089C50100DDC5010031C601006DAD010095
S31500000060C59A0100F19501008D990100D99701000B
S3150000007089A40100C5A40100718401002183010047
S31500000080F5830100318201008DA40000FFFFFFFF10
S31500000090FFFFFFFFFFFFFFFFFFFFFFFFFFFFFFFF6A
S315000000A0FFFFFFFFFFFFFFFFFFFFFFFFFFFFFFFF5A
S315000000B0FFFFFFFFFFFFFFFFFFFFFFFFFFFFFFFF4A
S315000000C0FFFFFFFFFFFFFFFFFFFFFFFFFFFFFFFF3A
S31500000400FFFFFFFFFFF9FFFFFFFFFFFFFFFFFFFFFC
S31500000410FFFFFFFFFFFFFFFFFFFFFFFFFFFFFFFFE6
S31500000420FFFFFFFFFFFFFFFFFFFFFFFFFFFFFFFFD6
S31500000430FFFFFFFFFFFFFFFFFFFFFFFFFFFFFFFFC6
S31500000440FFFFFFFFFFFFFFFFFFFFFFFFFFFFFFFFB6
S31500000450FFFFFFFFFFFFFFFFFFFFFFFFFFFFFFFFA6
S31500000460FFFFFFFFFFFFFFFFFFFFFFFFFFFFFFFF96
S31500000470FFFFFFFFFFFFFFFFFFFFFFFFFFFFFFFF86
S31500000480FFFFFFFFFFFFFFFFFFFFFFFFFFFFFFFF76
S31500000490FFFFFFFFFFFFFFFFFFFFFFFFFFFFFFFF66
S315000004A0FFFFFFFFFFFFFFFFFFFFFFFFFFFFFFFF56
S315000004B0FFFFFFFFFFFFFFFFFFFFFFFFFFFFFFFF46
S315000004C0FFFFFFFFFFFFFFFFFFFFFFFFFFFFFFFF36
S315000004D0FFFFFFFFFFFFFFFFFFFFFFFFFFFFFFFF26
S315000004E0FFFFFFFFFFFFFFFFFFFFFFFFFFFFFFFF16
S315000004F0FFFFFFFFFFFFFFFFFFFFFFFFFFFFFFFF06
S31500000500FC04042020000700000504202104070045
S3150000051004050420FD01440008050420640540008C
S315000005200C050420FA01430010050420FB014308D2
S3150000053014050420FC014310480D04200A00064857
S3150000054018050420700815001C0504206D08150800
S31500000550200504206F081510240504206E081518C0
S3150000056028050420FF0145002C050420FE0145084E
S315000005704C0D042077011408500D0420740114104A
S31500000580540D042076011420580D042075011428FA
S3150000059030050420730133212000000020000100F3
S315000005A02F0000002F0001000C00010011000000C8
S315000005B0300000003000010024000000240001008B
S315000005C02400020024000300240004002400050087
S315000005D013000000170000002300000021000000A7
S315000005E021000100070000000700010007000200CB
S315000005F007000300070004000700050007000600C7
S315000006000700070012000000440000000800000078
S315000006100B00000041000000400000004000010007
S3150000062004000000430000002B0000002B000A001D
S315000006302B000B002B000C002B000D002B000100E3
S315000006402B0002002B0003002B0004002B000500EA
S315000006502B0006002B0007002B0008002B000900CA
S315000006600600000006000A0006000B0006000C004B
S3150000067006000D0006000E0006000F000600010031
S31500000680060002000600030006000400060005003E
S31500000690060006000600070006000800060009001E
S315000006A015000000150001001500020031000000D1
S315000006B02A000000450000001000000003010000B1
S315000006C003000000030001000F0000000D00000001
S315000006D02D000000420000002C0000002C0001004C
S315000006E02C0002002C00030032000000280000004D
S315000006F0180000001400000014000100140002009D
S315000007001400030014000400140005001400060081
S31500000710140007001400080014000900340000004B
S31500000720340001001600000016000100350000002C
S3150000073036000000360001002200000033000000F1
S31500000740330100002900000010B5054C237833B9A9
S31500000750044B13B10448AFF300800123237010BD8E
S31500000760C010FE1F00000000F0F5050008B5034BA1
S315000007701BB103490348AFF3008008BD0000000029
S31500000780C410FE1FF0F50500002310B503750C68B4
S315000007906368A1684FF0FF3202619A68B4F800C03E
S315000007A01268A0F800C0C0E90131A1898181E18900
S315000007B0C181D3E90001904738B9A368D3E9011292
S315000007C0BDE8104012681868104710BD20B14FF000
S315000007D0022303600020704701207047D0E90123FF
S315000007E0996870B504461868CB681568984770B95B
S315000007F00B4B01461B6A2088984702203AF04EFBB5
S3150000080063689B6828461B699847122800D070BD0C
S3150000081063689B6828461B69BDE87040184700BF9F
S31500000820AC8205002DE9F0470A2782B006460D4640
S3150000083091469846BA46736928469847B468CDF8F3
S3150000084000A00023424649462846A047B36904460D
S31500000850284698470CB1013FEDD1204602B0BDE8CD
S31500000860F08700BFF0B52E4A4368156A9E681F6878
S3150000087083B0002104460088A84702203AF00EFB08
S3150000088001212088A84702203AF008FB00238DF8B2
S315000008900430742304258DF8053027238DF806309F
S315000008A00DEB05022B46394630468DF80750FFF70B
S315000008B0B9FF90BBC0238DF8053001AA0223394643
S315000008C030468DF80450FFF7ADFF30BB22238DF87C
S315000008D004300C238DF8053001AA02233946304630
S315000008E0FFF7A0FFC8B90B228DF805008DF804208C
S315000008F0022301AA39463046FFF794FF68B9E02380
S315000009008DF8043001AA394630460123FFF78AFFE5
S3150000091018B90523237503B0F0BD642003B0F0BDFC
S31500000920AC8205002DE9F04FD0E9012314689568E3
S315000009309A6885B007468846186853684FF0FF31B5
S315000009409847064618B1304605B0BDE8F08F032338
S3150000095088F804304FF00A0B6323A8F80000A8F8C3
S3150000096002008DF80B30D9466B6920469847012363
S31500000970CDF800901A460DF10B01AE682046B0473F
S31500000980AB698246204698472046BAF1000F11D13E
S315000009906B699847CDF8009053466E6801220DF1B9
S315000009A00B012046B047AB69824620469847BAF10C
S315000009B0000F07D0BBF1010BD6D16426304605B037
S315000009C0BDE8F08F9DF80B305B0748BF04234FF05E
S315000009D00A0948BF88F80430CA466B69204698471A
S315000009E0CDF800A06E680023042203A92046B04774
S315000009F0AB690646204698471EB1B9F10109ECD10C
S31500000A00DBE79DF80E209DF80C309DF80D1002F0E6
S31500000A100F0003F00F039DF80F2041EA0321BB8965
S31500000A2042EA0022F88903FB01F1254B00FB02F2A2
S31500000A30A3FB0140A3FB0243091AD21A00EB5101A2
S31500000A4003EB520341F3CF2143F3CF23A8F8001061
S31500000A50A8F802303A7D501E01280CD9032A0CD082
S31500000A6098F804203A75042A14D0304639827B82DD
S31500000A7005B0BDE8F08F03223A7598F80420032AE2
S31500000A80F0D1B7F910208A4210D0022288F804204B
S31500000A903A75EAE7B7F91020B7F91230A8F802302C
S31500000AA03046A8F8002005B0BDE8F08FB7F912204F
S31500000AB09A42EAD1012288F804203A75D5E700BFA8
S31500000AC00101100030B4039CE50624F0300C03D578
S31500000AD0D0F880502D021DD5A50603D5D0F880503C
S31500000AE0AD0217D5ACF10D0CBCF1020F0AD9406A64
S31500000AF0C0F87031029BC0E95A12C0E95D3400208B
S31500000B0030BC7047D0F8805015F4803FEFD1EDB27D
S31500000B10092DECD8092380F8C63130BC1846704739
S31500000B202DE9F04F074691B07C6A0A93BDF96C3007
S31500000B300893D4F878311F9EBDF868000B9003F037
S31500000B4010030793D4F86C313D6BBDF974A0BDF961
S31500000B5078B088460A999146B3F5006FBDF97020C2
S31500000B60D4F87031099201EB0802A8BF26F00806F6
S31500000B709A42C8BF5B1A0B99C8BF0D93D4F874315B
S31500000B80D8BFCDF8348001EB09029A42C6BF5B1A82
S31500000B900E93CDF8389025B116F480730C9300F0BF
S31500000BA0E780E37D0C930321384601F0FDF900222E
S31500000BB01146384606F09EFC079B002B00F03D814F
S31500000BC0D4F868310D9306F00F01384607F02AF87D
S31500000BD00D9BD4F878011946D4E95B230190D4F82B
S31500000BE074010090384606F0ADFEB00600F1B28002
S31500000BF04FF07F431A46F10640F1B5807006A168B2
S31500000C0001D50A43E1680B43C4E9562394F80E3133
S31500000C1043F0050384F80E31BDF82030102B40F266
S31500000C203A814FEA0851B1FBF3FC4FEA6C03099A8B
S31500000C30102A40F32C814FEA0950B0FBF2F0421023
S31500000C40B10544BFC3EB0843CCF1000C710544BFAA
S31500000C50C2EB09424042710748BFA3F50043310782
S31500000C60079948BFA2F5004229B10A9903EB01434F
S31500000C700B9902EB0142CDE9002C0022CDE90222BC
S31500000C8004905A465146384606F010FC099B0193DB
S31500000C90089B009352465B462146384600F00EFDFF
S31500000CA0002D00F0C28016F4807040F0BE802B78D4
S31500000CB0E375AB7884F80E316B7884F8D530D5E9D6
S31500000CC00123C4E93F23EB68C4F82C3195F8293099
S31500000CD084F8E930D5E90423C4E94D3295F8283083
S31500000CE084F8E830D5E90623C4E93B23D5E908238F
S31500000CF0C4E93D2395F82A3084F8EA3095F82B307C
S31500000D0084F8EB30D5E90B23C4E94F23D5E90D234D
S31500000D10C4F82421C4F85831EA6BB5F85430A4F865
S31500000D20A830C4F85C21EB6CB5F85620A4F8AA20CC
S31500000D30C4F8A0302A6D6B6CC4F89830C4F8A420AF
S31500000D40D5E91723A96CC4F89C10C4E92C2311B06B
S31500000D50BDE8F08F16F0800240F0A180F1064FF05A
S31500000D607F433FF54BAF700640F19D80A16848E791
S31500000D70E37D2B7094F80E31AB7094F8D5306B7020
S31500000D80D4F8FC306B60D4F80031AB60D4F82C3169
S31500000D90EB6094F8E93085F82930D4F838312B61C6
S31500000DA0D4F834316B6194F8E83085F82830D4F8FB
S31500000DB0EC30AB61D4F8F030EB61D4F8F4302B6250
S31500000DC0D4F8F8306B6294F8EA3085F82A3094F853
S31500000DD0EB3085F82B30D4F83C31EB62D4F8403157
S31500000DE02B63D4F824316B63D4F85831AB63D4F851
S31500000DF05C31EB63B4F8A830A5F85430B4F8AA30E7
S31500000E00A5F85630D4F8A030EB64D4F8A4302B659E
S31500000E10D4F898306B64D4F89C30AB64D4F8B03016
S31500000E20EB65D4F8B4302B66BDE60C99384601F074
S31500000E30BBF8002011B0BDE8F08FD4F8783123F06C
S31500000E403003422B32D8DFE803F04E5F6A5F5F441F
S31500000E506A5F5F4E4E4E4E4E4E4E3131313131311C
S31500000E60313131313131313131313131313131316C
S31500000E70313131313131313131313131313131315C
S31500000E80313131313131313131316A5F5F00002228
S31500000E904FF48030D4E600234FF4803CC7E60023AD
S31500000EA04FF07F42A7E663F07F43ADE606F00F0101
S31500000EB0384606F0B7FE0022D4F878010D9B11469D
S31500000EC0D4F86C2101900E980090384606F03AFD51
S31500000ED08BE6D7F880309B022CD5184BC4F82C3102
S31500000EE0012384F8E930DDE90A31D4F86C2102FBEC
S31500000EF00133D4F868211A4406F00F0138460F92E0
S31500000F0006F090FE0F9AD7E7DDE90A31D4F86C2196
S31500000F1002FB0133D4F8682102EB4302ECE7DDE97A
S31500000F200A31D4F86C2102FB0133D4F8682102EBB4
S31500000F308302E1E7092087F8C60108E710000400EC
S31500000F402DE9F04385B09146BDF93020A9F110088E
S31500000F501F469044BDF934301FFA88F8A7F11006F1
S31500000F601E4408F10F0323F00F03B6B2ADF80C30A0
S31500000F7006F10F0323F00F03ADF80E3029F00F032F
S31500000F800D46ADF8083002A927F00F030446ADF868
S31500000F900A3007F015FD10B905B0BDE8F083294603
S31500000FA0204605F009FD95F8D53099070FFA88F81F
S31500000FB036B233D4DA0700F1AE800023009302AADA
S31500000FC02946204602F012FF0023064602AA2946B9
S31500000FD0204605F03DF8002302AA2946204606F0E1
S31500000FE053FED4F8B82102F10803C4F8B83100233F
S31500000FF01360D4F8BC315660013B002BC4F8BC31F9
S3150000100003DCD4F8C031204698472046002202A9C6
S3150000101005F094FF012005B0BDE8F083DB077AD424
S3150000102049EA080247EA0603120703F00F0300F035
S315000010308E81BDF90820D4F8B801A2EB090212038B
S3150000104002F58032002B40F0F181D4F8BC3100F17A
S315000010500801013BC4F8B811002B42604FF00402AE
S315000010600260C4F8BC3140F32083013B01F1080261
S315000010700A264FF48030002BC4F8B821C1E900607D
S31500001080C4F8BC3140F30A83013B002102F1080099
S315000010904FF010098B42C4F8B801C2E90091C4F8B8
S315000010A0BC3140F3F482BDF90820A8EB02084FEAF0
S315000010B00832013B02F5803200F10801C4F8B8118C
S315000010C0002B42604FF005020260C4F8BC3140F3C9
S315000010D0D782D548013B01F10802C4F8B821002B9C
S315000010E048604FF00B000860C4F8BC3140F3C18281
S315000010F002F10801013BC4F8B81100214FF0110EAE
S315000011008B42C2E900E1C4F8BC3140F38781032376
S315000011100093022353E7BDF90830D5F81001D4E94E
S315000011206EC2A3EB090300FB03F300EB1313013AB2
S315000011300CF10801C4F8B811002ACCF804304FF0BD
S315000011400403CCF80030C4F8BC2107DC2046D4F8F0
S31500001150C0319847D4E96E12D5F81001013A01F171
S315000011600803C4F8B831002A48604FF00A00086046
S31500001170C4F8BC2105DCD4F8C03120469847D4E930
S315000011806E32013A002103F1080C4FF0100E8A422C
S31500001190C4F8B8C1C3E900E1C4F8BC2105DCD4F841
S315000011A0C03120469847D4E96EC2BDF90830D5F85B
S315000011B01011A8EB030801FB08F3013A01EB131326
S315000011C00CF10800C4F8B801002ACCF804304FF03E
S315000011D00503CCF80030C4F8BC2107DC2046D4F85F
S315000011E0C0319847D4E96E02D5F810114942013A48
S315000011F000F10803C4F8B831002A41604FF00B0132
S315000012000160C4F8BC2105DCD4F8C03120469847FB
S31500001210D4E96E32013A002003F108014FF0110CB7
S315000012208242C4F8B811C3E900C0C4F8BC2105DC89
S31500001230D4F8C03120469847D4E96E12BDF90A3079
S31500001240DF1BD5F81031013A03FB07F703EB17173D
S3150000125001F108000623002AC4F8B8014F600B60AC
S31500001260C4F8BC2105DC2046D4F8C0319847D4E93F
S315000012706E02531E002200F108010C279342C4F8A7
S31500001280B811C0E90072C4F8BC3105DCD4F8C0312D
S3150000129020469847D4E96E13013BD5F8102101F199
S315000012A008001227002BC4F8B8014A600F60C4F882
S315000012B0BC3107DCD4F8C03120469847D4E96E0328
S315000012C0D5F81021BDF90A10761A02FB06F6013B85
S315000012D002EB161200F10801C4F8B811002B4260A7
S315000012E04FF007020260C4F8BC3105DCD4F8C03107
S315000012F020469847D4E96E13013B002001F108020D
S315000013000D268342C4F8B821C1E90060C4F8BC3197
S3150000131005DCD4F8C03120469847D4E96E23D5F8C9
S315000013201011013B494202F10800C4F8B801002B34
S3150000133051604FF013011160C4F8BC3103DCD4F8DE
S31500001340C031204698470F230093042337E6002B2D
S315000013503FF433AEBDF90A30DF1BD4E96E233F03F9
S31500001360013B07F5803702F108010420002BC4F881
S31500001370B81157601060C4F8BC3140F32681013BB8
S31500001380002001F108024FF00A0E8342C4F8B8218A
S31500001390C1E900E0C4F8BC3140F31081013B02F121
S315000013A008004FF0100C4FF48031002BC4F8B80140
S315000013B0C2E900C1C4F8BC3140F3F980BDF90A2086
S315000013C0B61A013B360306F5803600F10801052200
S315000013D0002BC4F8B81146600260C4F8BC3140F373
S315000013E0DF80013B002001F108020B278342C4F88D
S315000013F0B821C1E90070C4F8BC3140F3CA800A497B
S31500001400013B02F10800C4F8B801002B51604FF00F
S3150000141011011160C4F8BC313FF779AED4F8C03180
S315000014202046984773E600BF0000FFFFD4F8BC31A2
S3150000143000F10801013BC4F8B811002B42604FF0DF
S3150000144004020260C4F8BC3140F30C81013B01F197
S3150000145008024FF00A0C4FF48030002BC4F8B82174
S31500001460C1E900C0C4F8BC3140F3F580013B00215E
S3150000147002F108004FF010098B42C4F8B801C2E926
S315000014800091C4F8BC3140F3DF80BDF90820A8EB19
S3150000149002084FEA0832013B02F5803200F10801EA
S315000014A0C4F8B811002B42604FF005020260C4F880
S315000014B0BC3140F3C2808048013B01F10802C4F808
S315000014C0B821002B48604FF00B000860C4F8BC310F
S315000014D040F3AC80013B002002F108014FF0110EF1
S315000014E08342C4F8B811C2E900E0C4F8BC3140F345
S315000014F09680BDF90A20D71B013B3F0307F58037CD
S3150000150001F108020620002BC4F8B8214F600860DC
S31500001510C4F8BC317CDD013B002002F108014FF02C
S315000015200C0C8342C4F8B811C2E900C0C4F8BC313F
S3150000153067DD013B01F1080212274FF48030002BD2
S31500001540C4F8B821C1E90070C4F8BC3152DDBDF958
S315000015500A10761A013B360306F5803602F10801B9
S315000015600720002BC4F8B81156601060C4F8BC31CF
S3150000157039DD013B002001F108020D268342C4F843
S31500001580B821C1E90060C4F8BC3125DD4A49013BF8
S31500001590C9E6D4F8C03120469847D4E96E232EE731
S315000015A0D4F8C03120469847D4E96E1319E7D4F829
S315000015B0C03120469847D4E96E03FFE6D4F8C0311F
S315000015C020469847D4E96E23E8E6D4F8C031204691
S315000015D09847D4E96E13D2E6D4F8C031204698472E
S315000015E0D4E96E23D2E7D4F8C03120469847D4E92F
S315000015F06E13BEE7D4F8C03120469847D4E96E236F
S31500001600A5E7D4F8C03120469847D4E96E1390E791
S31500001610D4F8C03120469847D4E96E237BE7D4F846
S31500001620C03120469847D4E96E1362E7D4F8C0313A
S3150000163020469847D4E96E234CE7D4F8C0312046BB
S315000016409847D4E96E1336E7D4F8C0312046984758
S31500001650D4E96E0319E7D4F8C03120469847D4E997
S315000016606E2303E7D4F8C03120469847D4E96E13B9
S31500001670ECE6D4F8C03120469847D4E96E2337E526
S31500001680D4F8C03120469847D4E96E1321E5D4F842
S31500001690C03120469847D4E96E0304E5D4F8C0313A
S315000016A020469847D4E96E23EEE4D4F8C0312046AC
S315000016B09847D4E96E13D8E40000FFFF30B4BDF9B3
S315000016C00840BDF90C5034B1002D04DDCDE90245CA
S315000016D030BCFFF735BC002030BC704700B583B086
S315000016E08C46BDF9101043B1002906DD0191816ACF
S315000016F0009313466246FFF723FC002003B05DF813
S3150000170004FB00BF00B583B08C46BDF9101073B161
S3150000171000290CDDCDE90031B0F87030C16A134400
S31500001720B0F86E2062441BB212B2FFF709FC00202B
S3150000173003B05DF804FB00BF2DE9F04F05468DB000
S31500001740B5F96C60BDF95800002E48DD102E0F4625
S315000017509846E96A0BD091F8D730012B43D1B1F9FD
S31500001760D830B3423FDD91F8D530DB073BD494B295
S315000017701FFA80F9B2B209EB420A0FFA8AFAA31AE3
S31500001780BAF1000F1BB261DD1FFA87FBABEB020259
S31500001790CDE9006A12B228460793FFF7D1FBE96A42
S315000017A0079BB8F1000F58D03A46CDE90086284687
S315000017B0FFF7C6FBCDF804A000960BEB0802079BCB
S315000017C0E96A12B22846FFF7BBFB04EB0902E96A95
S315000017D013B2CDE900863A462846FFF7B1FB002052
S315000017E00DB0BDE8F08F92B2083810440196083A61
S315000017F0C6F34F06BFB2921BA8F1080812B2B8444E
S31500001800083FADF82220ADF8262000230422BF1B96
S31500001810B04406443FB20FFA88F836B202920092FC
S31500001820CDE90333284608AAADF82070ADF82C7030
S31500001830ADF82480ADF82880ADF82A60ADF82E60AA
S3150000184004F0D8FC00200DB0BDE8F08FB8F1000F11
S31500001850C5D0CDE900863A46B4E7CDE9006A3A46F6
S315000018602846FFF76DFBBAE72DE9F04182B01C462A
S31500001870BDF920600096054620340F46904624B2F6
S31500001880FFF75AFF284605F017F87CB1203636B226
S31500001890002E0BDDA8F11003A7F110020196A96A2C
S315000018A000941BB212B22846FFF74AFB284605F001
S315000018B023F8002002B0BDE8F08100BF2DE9F04119
S315000018C082B00446BDF92070EBB1002F1BDDCDE9D7
S315000018D000371D46B0F8703016461344B0F86E2037
S315000018E00A4488461BB2C16A12B2FFF729FB20469A
S315000018F004F0E2FF0197A16A00953346424620466E
S31500001900FFF71EFB02E0204604F0D6FF204604F057
S31500001910F3FF002002B0BDE8F08100BF2DE9F04FD3
S3150000192089B00446BDF94C60BDF94880002E0D46CD
S3150000193092461F4640F3DD8008EB660189B292B2FB
S3150000194002F10F00521A22F00F0208449BB2ADF8C2
S31500001950182020F00F02ADF81C2003F10F025B1ACD
S3150000196023F00F030A44ADF81A3022F00F03ADF846
S315000019701E30A8EB6603082B35DDB5F9DA30002BEF
S3150000198039DDBDF91820B4F97210D21A8A42A8BFFF
S3150000199011B2BDF91A20ADF81810B4F97410D21AA4
S315000019A08A42A8BF11B2BDF91C20ADF81A10B4F9CD
S315000019B076101A448A42D8BF11B2BDF91E20ADF87E
S315000019C01C109B461344B4F9782006A9934220467E
S315000019D0CCBFADF81E20ADF81E3006F0F1FF90B971
S315000019E009B0BDE8F08FB5F9DA30002B0FFA81F8AF
S315000019F04FF00006C5DC06A920464FF0000B06F0A6
S31500001A00DFFF0028ECD0BDF81830AAEB030ABDF8BA
S31500001A101A302946FF1A204604F0CEFF0FFA8AFA3A
S31500001A20D5F828913FB2002E00F0C78006FB06F3DA
S31500001A30984505DD95F8D52012F0010200F0848066
S31500001A4006EBD676C6F34F061FFA88F806EB0803B0
S31500001A5000221BB24FF0010BCDE9032B019302923A
S31500001A605346294620460097A8EB060600F024FCBC
S31500001A7036B2734A029253460222CDE903BB00975F
S31500001A8001962946204600F017FCD4F8802009F478
S31500001A902069520149F0C5034FD4009306AA0423D6
S31500001AA02946204602F0A2F9D4E96E1201F1080394
S31500001AB0C4F8B831013A486000239A420B60C4F872
S31500001AC0BC2134DD4FF0000806AA29462046002333
S31500001AD004F0BEFA0023294606AA204606F0D4F8EA
S31500001AE02046424606A905F029FA012009B0BDE8BC
S31500001AF0F08F1FFA88F31FFA8AF103F10F000844EA
S31500001B00C91A21F00F01BAB2ADF8181020F00F0172
S31500001B10ADF81C1002F10F01D21A0B4422F00F028D
S31500001B2023F00F03ADF81A20ADF81E3025E7D4F8E0
S31500001B30C021204698469047C6E795F8D52012065C
S31500001B4002F080721343A8E706F1100101EBD17190
S31500001B504910090308F101080FFA88F302910121DF
S31500001B60009701930392534604912046294609F4AF
S31500001B70007900F0A1FB49F4004343F041030093D0
S31500001B8006AA02232946204602F030F9D4E96E233C
S31500001B90013B3603074602F108011620002BC4F864
S31500001BA0B81156601060C4F8BC3142DD5A1E01F10E
S31500001BB00803C4F8B8314F607EE701215346324628
S31500001BC00491CDE9026629460097CDF804802046A7
S31500001BD000F072FBD4F8802009F4007949F4400340
S31500001BE0510143F0410305D595F8D520120602F0C0
S31500001BF080721343009306AA02232946204602F068
S31500001C00F5F8D4E96E2302F10801C4F8B811013BD6
S31500001C1000218B4250601160C4F8BC3103DCD4F85B
S31500001C20C03120469847D84408F10F084FEA1818E3
S31500001C304AE7D4F8C03120469847D4E96E13B5E791
S31500001C400080FFFF10B582B00C46816A00931346F0
S31500001C502246BDF910400194FFF760FE002002B055
S31500001C6010BD00BF10B582B08E460093B0F870303C
S31500001C70BDF91040C16A1344B0F86E200194724455
S31500001C801BB212B2FFF74AFE002002B010BD00BF21
S31500001C902DE9F043B0F96C9085B0B9F1000FBDF9AC
S31500001CA0308017DD1C46B8F1000F06460F46134676
S31500001CB0A5B213DCC9F34F042C4408EBD87C04EB23
S31500001CC06C04CDF8049024B2F16A00943A4630468A
S31500001CD0FFF724FE002005B0BDE8F083C9F34F04EA
S31500001CE0A5EB6802121B12B20092CDF80490C16AED
S31500001CF003933A46FFF712FE039BDDE72DE9F04317
S31500001D0083B0B0F96CC0BDF92880B8F1000F044665
S31500001D100F4691461E4615DDBCF1000F2BDC204612
S31500001D2004F0CAFDCDF80480A16A00964B463A46F7
S31500001D302046FFF7F3FD204604F0DEFD002003B049
S31500001D40BDE8F083EBD1BCF1000FE8DDACF1100388
S31500001D50C3F3C03202FA83F30CF1080C06EB6303FB
S31500001D600FFA8CF51BB200930195C16A4B463A46B1
S31500001D70FFF7D4FDD3E708EB4C0C0FFA8CF5CDE951
S31500001D8000351346C16A3A46FFF7C8FDC7E700BFEC
S31500001D902DE9F04182B01D460093B0F87030BDF9D0
S31500001DA0208017461344B0F86E20CDF804800A440C
S31500001DB004460E461BB2C16A12B2FFF7AFFD2046BB
S31500001DC004F07AFDCDF80480A16A00953B463246C0
S31500001DD02046FFF7A3FD204604F08EFD002002B04A
S31500001DE0BDE8F081F8B506464FF4BE7004F0BEF8C3
S31500001DF00446002800F0968000254FF0FF370223A6
S31500001E0080F8D53080F80E5107614FF07F430422E9
S31500001E10C0F85431C0E95333D6F8803080F8E92051
S31500001E20716D466013F0006F404BC0F8285108BF33
S31500001E304FF48003C0F820310B436FF07F41C0E9B7
S31500001E40021110218182C0F8D01043F40123AA2187
S31500001E50C0F81411C0F8C41043F4C0634FF4B05175
S31500001E60C0F82431C0F81C114FF480334FF47031A0
S31500001E70C0F81031C0F83031C0F81831C0F834114C
S31500001E8001234FF40021C0F82C11C38280F8D4300E
S31500001E90C0F844510583C0F8CC50C0E94F55C0F88E
S31500001EA0C820A0F80C3140F20113A4F8D630402324
S31500001EB0C4F8D8301C30C4E93F55C4E9415584F80C
S31500001EC00F51C4F8485101F089FF04F1340001F0C4
S31500001ED085FF04F14C0001F081FF04F1640001F07C
S31500001EE07DFF04F17C0001F079FF04F1940001F01C
S31500001EF075FF04F1AC0001F071FF0D4BC4F8E4303E
S31500001F000C2384F8E830C4E93757C4F83871214601
S31500001F10304605F0A3FBF3692360F46186F8C651E9
S31500001F202046F8BD012386F8C631F9E708004020AF
S31500001F300103030338B5036A8B4205462FD00C46CE
S31500001F4000F11C031A461B68A34206D0002BF9D1E8
S31500001F50032385F8C631184638BD236813606B6ABB
S31500001F60A34219D0EB6AD4F80801A34204BF2B6A36
S31500001F70EB62AB6AA34204BF2B6AAB6220B107F0E7
S31500001F8007FD0023C4F80831204603F0F1FF0023C3
S31500001F9085F8C631184638BD2B6A6B62E2E707231F
S31500001FA080F8C631184638BD436A93F80E21D975B4
S31500001FB042F00102022983F80E2118D00AD893F8BC
S31500001FC0D52022F00C0283F8D520002380F8C631F4
S31500001FD0184670470329F8D193F8D52042F00C0231
S31500001FE083F8D520002380F8C6311846704793F849
S31500001FF0D52022F0080242F0040283F8D5200023FF
S3150000200080F8C6311846704710B40231446A22F08F
S315000020107F4244F8212094F80E21034642F0010243
S31500002020002084F80E2183F8C6015DF8044B704742
S31500002030436A93F80E2142F0010C83F80EC193F81F
S3150000204012C099748C451CBF42F0070283F80E211A
S315000020509A7DD20744BF0906C3F84C11002380F8C5
S31500002060C6311846704700BF10B4446A94F80E3162
S31500002070032943F00103844684F80E3127D81A4B0E
S3150000208053F82110032A22D8DFE802F027042A0297
S3150000209041F4A051D4F82021D4F82C31C4F81C11F5
S315000020A01343DCF854201343D4F83C211343D4F8EB
S315000020B040211343D4F8442113430B430022C4F8B0
S315000020C024318CF8C62110465DF8044B7047102069
S315000020D08CF8C6015DF8044B704741F48051D9E78E
S315000020E041F48061D6E700BF147C050010B4446A51
S315000020F094F80E3143F0010384F80E310023237661
S31500002100D0F880301B01844623D401293AD099BBEC
S31500002110012A31D14FF44001D4F82C21D4F81C31D6
S31500002120C4F820111343DCF854201343D4F83C219F
S315000021301343D4F840211343D4F8442113430B43EB
S315000021400022C4F824318CF8C62110465DF8044BF1
S315000021507047032910D8124B53F82110032A0BD8C5
S3150000216001A353F822F000BF9921000019210000B5
S31500002170932100008F21000010208CF8C6015DF825
S31500002180044B7047002AF7D14FF48001C4E741F0B1
S31500002190005141F08001BFE741F00051BCE700BFAC
S315000021A0247C0500436A69B193F8D520002142F0EA
S315000021B0020283F8D520C3F82811002380F8C6311F
S315000021C01846704710B493F8D5204FF48031C3F801
S315000021D010114FF4FC4422F003021021C3F82841E9
S315000021E083F8D5209982002380F8C6315DF8044B28
S315000021F018467047426A034602294FF000000CBF9A
S315000022004FF0030C844682F8D61082F80FC183F88B
S31500002210C6017047034600205A6A82F8D71083F831
S31500002220C601704770B4DDE9034540B354EA050CB6
S31500002230466A1CD001EB410C06EBCC0CCCE90845F8
S31500002240ACF832300023CCE90A33059BACF83020D9
S3150000225043F00103CCF81C3001228A40717E114301
S315000022607176002380F8C63170BC18467047737EBD
S31500002270012202FA01F123EA01017176F1E7022057
S3150000228070BC7047D0F84C11027C90F811C0090A56
S315000022906FF07F4301FB023201FB0C3390F80E1105
S315000022A002F07F4203F07F4321F00201C0E954238C
S315000022B080F80E11704700BF2DE9F04F83B01D4620
S315000022C0BDF93490BDF9307091F8D5301FFA89F612
S315000022D090460E9A0092A5EB060A0F9A01920446C2
S315000022E0BE1BD807109A0FFA8AFA36B240F1BC80A4
S315000022F08B46002A40F052814A464FEAE9734FF076
S3150000230078404FF0FF314DF093FBBBF914200902E2
S31500002310D31741EA106100024DF08AFB06FB06FC6A
S315000023200AFB0ACCBCF1000FB8BF0CF1FF0C4FEA58
S315000023302C2303FB01F24FEAEC7C0CFB002CA3FBE5
S3150000234000321CEB020202D50F3342F10002DBF829
S3150000235010E109EBD979564406EB6906A6FB0EC9CE
S315000023604FEAE67B1B090EFB0B9943EA02734FEA21
S3150000237009194FEA0C169B1B4FEA221249EA1C79EF
S3150000238062EB0909B9F1000F02DAFF3349F10009DE
S315000023901B0A002943EA09690A4604DA40F6FF7275
S315000023A0801841F10002000B40EA0252C5F108050F
S315000023B002FB05F56D0000F1EF80C7F1080702FB8F
S315000023C007F77F00019B48BF0F372D113F11002BE8
S315000023D060D0009BC9F10009A9EB0301D4E96E6343
S315000023E0013B06F10800C4F8B801002B716008F142
S315000023F004013160C4F8BC3107DCD4F8C031009266
S3150000240020469847D4E96E03009A6D42013B00F1DD
S315000024100801C4F8B811002B456008F105050560F0
S31500002420C4F8BC3107DCD4F8C03100922046984786
S31500002430D4E96E13009A013B7F4201F1080008F1CE
S315000024401005002BC4F8B8014F600D60C4F8BC310C
S3150000245007DCD4F8C031009220469847D4E96E03D1
S31500002460009AC2EBC27258E05AEA060379D1C9F162
S3150000247008056E4A92FBF9F202FB05F56D0048BFAE
S315000024800F35C9EB49592D114FEAC9292F46019B32
S31500002490002B9ED1D4E96E13009E013B4E4401F100
S315000024A00800C4F8B801002B4E6008F104060E605F
S315000024B0C4F8BC3107DCD4F8C031009220469847F6
S315000024C0D4E96E03009A013B00F10801C4F8B81183
S315000024D0002B456008F105050560C4F8BC3107DC32
S315000024E0D4F8C031009220469847D4E96E13009A7A
S315000024F0013B01F1080008F11005002BC4F8B801F2
S315000025004F600D60C4F8BC3107DCD4F8C0310092CE
S3150000251020469847D4E96E03009A013B550000F126
S31500002520080108F10B02002BC4F8B81145600260DF
S31500002530C4F8BC3105DCD4F8C03120469847D4E94C
S315000025406E13013B08F1110201F10800002BC4F8DB
S31500002550B801C1E90025C4F8BC315FDD03B0BDE8B0
S31500002560F08F06FB06F3324A92FBF9F256440AFB59
S315000025700A3309EBD97906EB6909C5F1080583FB2E
S315000025800263D210F60A02FB05F546EA43566D00D1
S31500002590A6EB09397FF511AF0F350EE7D4F8803079
S315000025A05B017FF5A9AEB1F91430C5F108054FF00E
S315000025B0784191FBF9F1890191FBF3F10A1102FBD4
S315000025C005F5C7F10807002D02FB07F706FB06F322
S315000025D00AFB0A33B8BF0735002FB8BF0737002BF1
S315000025E0B8BFFF331B1283FB013000284FEAE50515
S315000025F04FEAE70702DA0F3340F10000B24409EB75
S31500002600D979DBF810610AEB6909A9FB06694FEA7B
S31500002610131949EA0079A9EB860938E7D4F8C031DD
S31500002620204603B0BDE8F04F184700BF0000F8FF92
S315000026300000C0FFF8B506461420B7690D4603F042
S3150000264095FC0446D8B10023C0E90253B36ED807FF
S3150000265005EB850515D4A900304603F0B5FC054603
S31500002660606035B300232361B36ED90705D4D6F86D
S315000026708430DA0615D49B0709D40023236020464C
S31500002680F8BDA80003F072FC05466060E9E7A268A1
S3150000269002EB820204219200384607F07DF92061A0
S315000026A0EBE72946384607F0A5F9002320612360A9
S315000026B0E5E7204603F05CFC2C46E0E7F8B58769C1
S315000026C019B306460C460CE0696803F09FFC2A69BC
S315000026D01AB1D6F884309B070ED4284603F048FC7E
S315000026E09CB1B36E13F0010F254630462468EBD03B
S315000026F0686803F03DFCEAE73846042107F074F900
S31500002700284603F035FC002CEBD1F8BD836810B5E4
S315000027100446186838B1D0E901230021C16022615E
S31500002720E361A06010BD216A2068FFF783FF10B146
S31500002730A3681860EFE72368152283F8C72110BD48
S31500002740436970B50546F3B101685A688E696AB186
S3150000275000241A6852F82420042101341AB13046A4
S3150000276007F042F96B695A68A242F2D8186803F07A
S31500002770FFFB686903F0FCFB286B18B1BDE87040ED
S3150000278003F0F6BB70BDD0E90001FFF797FFF3E752
S315000027902DE9F047456982B00446002D3FD0C36954
S315000027A0002B36D1A96902680129D2F8188040F2B7
S315000027B097808768D5F81090BE68D7F804A0F968A6
S315000027C0006906EB86060AEB860209EB860609B166
S315000027D00E60FB60824207D9C3431A4422F003020B
S315000027E0043280214DF044FCBB68102703EB8303C1
S315000027F09B00524649464046009707F0FFF8AB69F2
S315000028002E61013BAB61204602B0BDE8F047FFF701
S315000028107DBFAB69012B21D002B0BDE8F087066908
S31500002820724B33603246C36942F8045F8168013BEC
S31500002830CA6040F2FF32B260C0E9065306F10C03EB
S315000028400361FFF763FF236893F9C731002B77D144
S31500002850A3685B68736002B0BDE8F087EB69026845
S31500002860012BD2F8188040D9EE68A7687068013B42
S31500002870EB61002800F0A8803A46FB68002B51D097
S3150000288018600023FB60A169236903290ED8DFE8DD
S3150000289001F0513D3102196821F07F4141F00041BC
S315000028A0196040F2FF31196114332361E369296924
S315000028B0013BE361D2E901230027A76103EB830310
S315000028C010279B004046009707F098F87368002B86
S315000028D099D0331DEB6072686B692A61AB6192E730
S315000028E0EB69012BC0D88ED1012904BF152382F8CC
S315000028F0C73188E7198841F0004141F400011960A9
S3150000290040F2FF31D96010332361CFE7197841F0E7
S31500002910802141F40001196040F2FF3199600C33C7
S315000029202361C3E72369314919601946083341F821
S31500002930040FD16040F2FF3143F8041B2361B5E771
S315000029402369A269A3F10C012161032A11D8DFE8EA
S3150000295002F0162D1E0253F80C2C22F07F4240F294
S31500002960FF3042F0004203F1080143F80C2C586096
S315000029702161E3690022013BC4E906234CE740F2EA
S31500002980FF31A3F1080243F80C1C2261F1E733F88A
S315000029900C2C194642F0004242F4000240F2FF308D
S315000029A043F80C2C41F8040B2161E2E713F80C2CD8
S315000029B042F0802240F2FF3142F4000243F80C2C30
S315000029C043F8041C2361D4E7AA6802EB8202920052
S315000029D00421404606F0E0FF706008B1A2684CE7AB
S315000029E02368012283F8C721A2684CE732808080E1
S315000029F082690369032A0BD8DFE802F00F021E1072
S31500002A001A7842F0802242F4000243F8082B036150
S31500002A10C3690022013BC0E9062370471A6822F009
S31500002A207F4242F0004243F8102B0361C369002243
S31500002A30013BC0E90623F0E71A8842F0004242F45F
S31500002A40000243F80C2B0361C3690022013BC0E975
S31500002A500623E2E710B504460068816E11F02001F6
S31500002A6004D13B2200F5BC704DF002FB626863693D
S31500002A70C4E902223BB11968D9600968586819612E
S31500002A805969C3E90610D2E901120023C4E90632E6
S31500002A902161E36210BD00BF2DE9F047D0F818A010
S31500002AA088464FF00009D8F8004014F0803F17D050
S31500002AB0B4F1803F43D0220444D5E4B2322C00F076
S31500002AC08280D8F804202146504601F05DFA202C79
S31500002AD070D0D8F8084014F0803F08F10808E7D114
S31500002AE0E7B2D8F804203946504601F04DFA202FB7
S31500002AF0C4F30726C4F307454FEA146456D0D8F842
S31500002B0008203146504601F03FFA202E4AD0D8F828
S31500002B100C202946504601F037FA202D3ED0D8F831
S31500002B2010202146504601F02FFA202C32D008F111
S31500002B301408B8E7002C49DBE3B2FF2B1CD008F1E0
S31500002B400408B0E72302F5D5E5B2FF2D36D0D8F854
S31500002B5004202946504601F017FA202D56D0C4F31A
S31500002B600724D8F808202146504601F00DFA202CFB
S31500002B7050D008F10C0896E7C4F30729B9F1020F03
S31500002B8002D0B9F1040F1ED1504608F1040801F035
S31500002B9001FA88E7504601F0FDF9C8E7504601F012
S31500002BA0F9F9BCE7504601F0F5F9B0E7504601F0F7
S31500002BB0F1F9A4E7504601F0EDF98AE7C4F30729D5
S31500002BC0B9F1020FE0D04846BDE8F087E6B2D8F882
S31500002BD004203146504601F0D7F9202EC4F30725CC
S31500002BE0C4F3074422D0D8F808202946504601F0FD
S31500002BF0CBF9202D16D0D8F80C202146504601F0EE
S31500002C00C3F9202C0AD008F110084CE7504601F011
S31500002C10C1F9A4E7504601F0BDF9AAE7504601F014
S31500002C20B9F9F0E7504601F0B5F9E4E7504601F08E
S31500002C30B1F9D8E72DE9F04FD0E96D47866ED0F8A7
S31500002C400CB03F1B16F02006DBF8002083B0804650
S31500002C504FEAE7075BD1DBF81850DBF81030002F9E
S31500002C604DD002F5BC71DFF81C920190083402F1D8
S31500002C708C0A884627E00AEB810C4FF0010208F81F
S31500002C800120CCF80000DBF82C20595503EB850118
S31500002C900135013215F003054860CBF82C200BD125
S31500002CA0DBF81C20DBF81030013A1433012ACBF88C
S31500002CB01030CBF81C206BD90136B74204F108045A
S31500002CC019D0DBF8002092F9C721A2B954E9021005
S31500002CD019F80120002AD6D018F90120002ACAD0F6
S31500002CE05AF8212082420AEB810CC6D10136B7423E
S31500002CF004F10804E5D1DDF80480D8F8B441CBF836
S31500002D0018504023C8E96E4303B0BDE8F08FDBF8E6
S31500002D102C303B44CBF82C3092F9C731002BF0D144
S31500002D20DBF81850002D3BD14FEA970907F0030551
S31500002D300026B9F1000F02D15AE04E4558D0DBF813
S31500002D40003093F9C7310136002B51D1DBF8103032
S31500002D5022681A70A2685A7022699A70A269DA709B
S31500002D6062685A60E2689A606169DBF81C20D96083
S31500002D70E1691961013A1433012ACBF81030CBF816
S31500002D801C2004F12004D8D85846FFF701FDD4E7EB
S31500002D90CBF818505846FFF7FBFCDBF810308BE7F2
S31500002DA0DBF81020002FACD0204604F1080302E027
S31500002DB00833002D47D053E90216515502EB850121
S31500002DC0013F05F101054E6005F003051946EFD1F7
S31500002DD0002D96D1DBF81C30CBF81850013B14328D
S31500002DE0012BCBF81020CBF81C3040D9044688E7DD
S31500002DF0002D42D0DBF8003093F9C72104F1040E10
S31500002E000023C2B9A146DBF81810DBF8100059F808
S31500002E1033C05EF833708DF804C04A1C00EB81069F
S31500002E20013302F003025FFA8CF4AB42445477603C
S31500002E30CBF81820E7D1D8F8B4414023C8E96E434F
S31500002E4003B0BDE8F08FDBF81C301432013BCBF841
S31500002E501020012B4FF00002CBF81C30CBF81820C5
S31500002E604FEA970907F0030502D90C4660E7A94621
S31500002E7058460C46FFF78CFC5AE7D8F8B4010446CE
S31500002E803FE700BF347C050010B50446FFF7D2FECD
S31500002E90E36899691A6903290ED8DFE801F030243E
S31500002EA01802116821F07F4140F2FF4041F00041D5
S31500002EB01160106114321A61DA69013A0021012A9F
S31500002EC0C3E9061221D9002084F8C60110BD118875
S31500002ED041F0004140F2FF4041F400011160D06032
S31500002EE010321A61E8E7117841F0802140F2FF4084
S31500002EF041F40001116090600C321A61DCE740F287
S31500002F00FF4142F8041B1A61D6E71846FFF740FC5A
S31500002F10002084F8C60110BD10B50446FFF78AFEEE
S31500002F20E36899691A6903290ED8DFE801F03024AD
S31500002F301802116821F07F4140F2FF2041F0004164
S31500002F401160106114321A61DA69013A0021012A0E
S31500002F50C3E9061221D9002084F8C60110BD1188E4
S31500002F6041F0004140F2FF2041F400011160D060C1
S31500002F7010321A61E8E7117841F0802140F2FF2013
S31500002F8041F40001116090600C321A61DCE740F2F6
S31500002F90FF2142F8041B1A61D6E71846FFF7F8FB33
S31500002FA0002084F8C60110BD2DE9F04103689D6E2E
S31500002FB015F0010582B026D1D0E90274BC429E69A3
S31500002FC0804612D0236830461BB1E2680AB11B69FD
S31500002FD01360D4E9012303EB8303216900959B0069
S31500002FE006F00CFD2468A742ECD1A368D8F81C00B3
S31500002FF0626821691B1A03EB830300249B00304699
S31500003000009406F0FBFC02B0BDE8F08103689A6EFE
S31500003010D20720D42DE9F041D0E90264B4429D697B
S3150000302007460BD0D4E9012303EB83039B0004215D
S31500003030284606F0EBFC2468A642F3D1F969A3689A
S3150000304062685B1A03EB830328469B00BDE8F041E8
S31500003050042106F0DBBC704703689A6ED20726D4BB
S315000030602DE9F041D0E90264B4429D69074611D0CA
S315000030702368042128461BB1E2680AB11B69136064
S31500003080A368226903EB83039B0006F0BFFC246858
S31500003090A642EDD1F969A36822695B1A03EB8303A3
S315000030A028469B00BDE8F041042106F0AFBC7047FE
S315000030B02DE9F0410C4682B0064608681746FFF730
S315000030C0B9FDA2692369032A0ED8DFE802F03F336F
S315000030D027021A6822F07F4242F000421A6040F24C
S315000030E0FF321A6114332361E369F26F0021013B59
S315000030F0A161E361002A60D06369002B51D05FBBF8
S315000031000023E3612046FFF743FB6369A268E260A0
S31500003110002B3AD0186902B0BDE8F0811A8842F057
S31500003120004242F400021A6040F2FF32DA601033C5
S315000031302361D9E71A7842F0802242F400021A602D
S3150000314040F2FF329A600C332361CDE740F2FF3242
S3150000315043F8042B2361C7E7206800F031FAA26820
S31500003160E169D2E901235B1A616903EB8303002558
S31500003170096900959B0006F041FC2046FFF76AFCB2
S315000031800020606202B0BDE8F081D6F8843013F00A
S31500003190120F02D010690028BDD1206902B0BDE827
S315000031A0F081D6F884309A07204624D4DB061DD554
S315000031B0FFF752FF002FA3D0DFE7D4F80880D8F836
S315000031C000508DB1A36A01333C2BA36294D12946EA
S315000031D02D6825B1884629462D68002DFAD120682C
S315000031E0FFF76CFAC8F80050A56285E7FFF70EFFF7
S315000031F0002F85D0C1E7FFF7D7FE002F80D0BCE7B0
S31500003200B1F93420086B002A10B50C4603DD920094
S3150000321000214CF02DFF0023E38610BDB1F93400E8
S315000032202DE9F041B1F936500E6B431EAB420C4608
S31500003230174609DD4FEA850846F825700135E5860B
S3150000324006EB0800BDE8F081103000B23146A086DA
S315000032500122800002F08EFEB4F9342020639542EC
S315000032600646E7DA521B9200002100EB85004FEA82
S3150000327085084CF0FDFEDFE72DE9F843D0F87C9099
S315000032800860002480460D464C61B9F1000F62D0FB
S31500003290D9F800304B60202002F068FE06466861CF
S315000032A0002855D0D9F80800800002F05FFE0746D6
S315000032B0306000284CD0D9E90112D8F88830716105
S315000032C003FB01F17260B1603AB12346204647F82C
S315000032D0230001339A423768F9D101EB81018A0054
S315000032E0D8F81800F760042106F056FB38603368FA
S315000032F01B686BB37268336173696868F261B361A6
S31500003300E86028B3D0E9013110222B610023A860C0
S31500003310C5E90631C5E90A33AA86402002F026FE31
S315000033202863A8B16B69DBB11B681C68B5F934204A
S31500003330002A03DD920000214CF09AFE0023EB8662
S31500003340224629464046FFF769FF0120BDE8F8837B
S315000033500020BDE8F8831146FFF76CF96860CFE7F7
S31500003360D8F8843013F0120F6B6802D01C69002C59
S31500003370DCD15C68DAE700BF38B5C36F04462BB111
S3150000338019680B6800221A60FFF798F921696569C8
S315000033900023C4E9043311B1204603F0C1F91DB17D
S315000033A02946204603F0BCF90025D4F8B40165602F
S315000033B0C4E90255656302F0DBFDC4E96D55A069F9
S315000033C000F0DAFD84F8C601A56138BD70B5054682
S315000033D04FF4EA7002F0CAFD0446002851D00223D9
S315000033E0002683644FF40013C0E90666C0E913663D
S315000033F08566A0F8C6614365FEF7F4FC6906C4E974
S315000034000800C4E90A003ED4702002F0AFFD012294
S315000034106266CC220023C4F888206A07C4E90C033C
S31500003420C4E90F33C4E91B33C4E90433C4E90233E6
S3150000343084F8C631A36384F8C43163646367A4F86F
S315000034407830636054BF05230423E3652B0703D557
S31500003450E36D23F00403E365002540F227122946B5
S315000034602566E56704F18C004CF002FE074BC4F8B4
S31500003470805019682160082284F8C85184F8C52153
S315000034801C60204670BD3046C1E700BFDC10FE1F41
S3150000349038B58569044615B1FFF76EFF0546124B30
S315000034A01A461B68A34204D0002BF9D102252846F0
S315000034B038BD2368E16913600023236229B12046E1
S315000034C0FEF738FDE1690029F9D1E06F08B102F095
S315000034D04FFD206B08B102F04BFD0023204623630D
S315000034E002F046FD284638BDDC10FE1F70B50446C6
S315000034F000F01CFDA06100285CD03B22002104F5F1
S31500003500BC704CF0B5FDE56F7DB1D4F8881020464F
S31500003510FFF790F8D4F88810286006462046FFF793
S3150000352089F82B6830601A681360D4F88820204622
S31500003530114603F0B9F8D4F88820206111462046D8
S3150000354003F0B2F823696061D3B1C8B10025C4E9BC
S315000035500233606065634FF4007002F007FD174B9D
S3150000356084F8C9514022C4E96D00C4E96F23A069FB
S315000035700A2106F045F938B9002084F8C60170BD65
S31500003580012084F8C60170BDFF23A0690A212A46DE
S3150000359006F01EF9A0692A460A2106F025F9FF2839
S315000035A008BF01234FF0000008BF84F8C93184F832
S315000035B0C601E4E7052084F8C60170BD352C00007D
S315000035C080697047B8B338B5436E8B420D460446E2
S315000035D014D0082B1CD0082914D003F0A3F9626A72
S315000035E092F80E31002143F0010382F80E3184F87F
S315000035F0C611082D656682F80E3115D0002084F8B4
S31500003600C60138BD426A92F80E3143F00103F0E775
S31500003610426A616692F80E3143F0010382F80E3178
S3150000362003F06AF9082DE9D1204603F045F9002098
S3150000363084F8C60138BD0220704700BF0023A0F8F9
S315000036406C1080F8C6311846704700BF38B110B507
S31500003650044600F0A9FC002084F8C60110BD022033
S31500003660704700BF10B5C468FFF7E4FA63682269C3
S315000036705B689A4201D0012010BD60690028FBD02A
S31500003680026803691068C01AB0FA80F0400910BDDC
S315000036902DE9F84F1D461746DDE90B32DDF8289077
S315000036A0D2F810410646DA0709FB09F054BFA346D3
S315000036B04FF0000B05FB050013F0020F08BFA246F2
S315000036C0884618BF4FF0000A02F0CCFB0D9B240180
S315000036D094FBF0F403B11C60C9F1000004FB00F098
S315000036E005FB04F424114544001104FB05F5B94417
S315000036F000FB19590C9BC8F100080AEB2912D3F8F4
S315000037001031B26100FB08F204FB172200FB07F739
S3150000371004FB08775B08C6E901043461306203EBF9
S3150000372022130BEB2717404264423360F760706147
S31500003730F461BDE8F88F00BF2DE9F04F83B01E4657
S31500003740DDF830900D9B019113F0010F074609FB40
S3150000375009F006FB060014BF4FF0000A4FF4803A4A
S3150000376013F0020F0E9D904614BF4FF0000B4FF45E
S31500003770803B02F077FB4FF48013019993FBF0F046
S3150000378005B12860C9F1000500FB05F52D1106FB02
S3150000379000F00E444942041105FB01F3C14404FB49
S315000037A0183304FB06F605FB08F805FB196604FB4F
S315000037B001881B11C7E901540BEB26163C613D62DB
S315000037C00AEB281203F500436D426442BE613B607A
S315000037D0FA607D61FC6103B0BDE8F08F2DE9F0432E
S315000037E0DDE9076414F0010F14BF4FF000084FF431
S315000037F0803814F0020F14BF4FF0000E4FF4803ED5
S31500003800002B099F71DB002E1FDBB34200F3908073
S315000038101D0495FBF6F505FB02FC4FEA2C1C0B4438
S315000038209419CCEB013C05FB01F105FB03F30911EF
S3150000383052422403C1EB023204EB231407B13E606B
S315000038405A4E69424FF4803321E0C6F1000999458A
S3150000385002EB06042DDA5D42360496FBF5F606FB0E
S3150000386001FC06FB02F54FEA2C1C524206FB04F44F
S31500003870CCEB023C2A112411A2EB01321944C4EB11
S31500003880013407B13B60494973424FF480357444B3
S31500003890C0E9053442440CF50043C0E90036C0E9EE
S315000038A00716C26085600561BDE8F083C6F10009B0
S315000038B094191D040B4495FBF9F5240305FB03F34A
S315000038C0C4EB231405FB02F305FB01F61B11494269
S315000038D0C3EB013C3111C1EB02320FB1C7F80090C6
S315000038E0324B69424FF48036D1E7002E3BDB5C4217
S315000038F0B4421FDD9519CC184FEA064C9CFBF3F633
S3150000390006FB01FC24034FEA2C1C644206FB05F56A
S315000039100903CCEB023C06FB02F2A4EB251401EBF7
S31500003920221207B13B60214D73424FF48031AEE75E
S31500003930941990E71D040B4495FBF6F505FB03F976
S3150000394005FB02F31B119419C3EB013C05FB01F1C6
S31500003950091152422403C1EB023204EB2914002F51
S315000039607FF46DAF6CE7B342A0DA9519CC184FEA35
S31500003970064C9CFBF3F606FB01FC24034FEA2C1CC9
S31500003980644206FB05F50903CCEB023C06FB02F29A
S31500003990A4EB251401EB2212002FC4D05B423B603E
S315000039A0024D73424FF4803171E700BF0000FFFF04
S315000039B010B4002B019C2ADB002C13DBA34237DC5E
S315000039C01B0493FBF4F404FB02F31B11C3EB01325B
S315000039D0384B029901B101328460C0E900235DF8D9
S315000039E0044B704703EB010C6142224499420FFAE3
S315000039F08CFC12B232DA2404120394FBF3F303FBB9
S31500003A000CFCC2EB2C125B424FF48034E1E7002C35
S31500003A1031DBC3F1000CA44516DD240494FBF3F35B
S31500003A2003FB01FC4FEA2C1C224CCCEB0232D0E704
S31500003A302404120394FBF3F303FB01F1C2EB2112FE
S31500003A405B424FF48034C4E71B0493FBF4F404FB9D
S31500003A5002F21211174BC2EB0132BAE71B044FEA0E
S31500003A600C3C93FBF4F404FB02F2CCEB221264420E
S31500003A704FF48033ADE703EB010C2244A3420FFA67
S31500003A808CFC12B20CDD1B044FEA0C3C93FBF4F4E5
S31500003A9004FB02F1CCEB211264424FF4803398E729
S31500003AA0240494FBF3F303FB0CF10911014CC1EB65
S31500003AB002328EE70000FFFF70B5059D049ED5F823
S31500003AC01041002B8E462DDB002E12DBB3422EDD7D
S31500003AD04FEA064C12039CFBF3F303FB01F1C2EB26
S31500003AE0211183FB0423120C42EA0342524223466D
S31500003AF02BE0B11872429E449A420FFA8EFE09B22A
S31500003B0040DB1B044FEA0E3E93FBF6F303FB01F189
S31500003B1083FB04321B0C43EA0243CEEB21115B42CA
S31500003B20224612E0002E36DB5942B1421ADC1B0453
S31500003B3093FBF6F303FB02F183FB043209111B0C22
S31500003B4043EA0243C1EB0E31624204EBD474B5F989
S31500003B5014504260090191FBF5F101EB6404046025
S31500003B60836070BD4FEA064C9CFBF3F303FB0EF13A
S31500003B700911C1EB023183FB0423120C42EA034212
S31500003B806342E2E73204090392FBF3F303FB0EFE02
S31500003B90C1EB2E11A5E79E44B118B3420FFA8EFE73
S31500003BA00FFA81FC07DD1B044FEA0E3E93FBF6F38A
S31500003BB003FB0CF1ACE7320492FBF3F303FB0EF1CB
S31500003BC00911C1EB0C3183FB043C1A0C42EA0C428E
S31500003BD06342BAE710B4019C002C03DA194422446C
S31500003BE009B212B204FB01F103FB121202996442FC
S31500003BF0120224031B0301B1013202F50042C0E99F
S31500003C00002483605DF8044B704700BF2DE9F04146
S31500003C10069D002D06460C4690461F4604DA1C44B7
S31500003C20AA1824B20FFA82F805FB05F007FB070075
S31500003C3002F018F96D424FF48012B2FBF0F000FB6F
S31500003C4005F5644200FB07F72D113F1105FB04F44F
S31500003C50079B07FB1842121103B1013202F500421D
S31500003C60C6E90025B760BDE8F08100BF8268036839
S31500003C7010B401FB02315442846001605DF8044BCC
S31500003C80704700BFF8B50C46B1F914C04968069EE6
S31500003C900546B4F91600ACEB0202C31AA06801FB94
S31500003CA002F200FB03232268079817074FEA231343
S31500003CB048BF0133D70648BFA3F58033012712F06A
S31500003CC0040F07FA06F708D04FF4007CA3F500436B
S31500003CD00CFA06FC013B47EA0C07520606D54FEAEA
S31500003CE0560C4FF4003202FA0CF217435B4280BBCB
S31500003CF0D5E96EC2013A0CF10800C5F8B801002AF0
S31500003D00CCF8043006F10403CCF80030C5F8BC2129
S31500003D105CDD531E00F10802C5F8B821002B416096
S31500003D2006F10A010160C5F8BC3148DDA16810360C
S31500003D30013B02F10800002BC5F8B801C2E9006199
S31500003D40C5F8BC3103DCD5F8C0312846984738465B
S31500003D50F8BDD5E96EC29B01013A0CF10800C5F821
S31500003D60B801002ACCF8043006F10403CCF8003080
S31500003D70C5F8BC211BDD531E890100F10802C5F8F8
S31500003D80B821002B416006F10A010160C5F8BC317B
S31500003D9003DDA16810368901CAE7D5F8C031284687
S31500003DA09847A168D5E96E2310368901C0E72846F1
S31500003DB0D5F8C0319847D5E96E026168DBE7D5F8DA
S31500003DC0C03128469847D5E96E23AFE72846D5F88F
S31500003DD0C0319847D5E96E0261689AE70023C0E9C9
S31500003DE00033C0E90233C0E9043370472DE9F041DE
S31500003DF01D464B7E82B00C46D907089E0746904664
S31500003E000DD5E269D20705D5052D67D9304602B032
S31500003E10BDE8F081042DF9D826F4000602359A078C
S31500003E201AD5636BDB074FD5052DEFD806F08073E7
S31500003E3000950193B8F90230B8F9002004F1340175
S31500003E403846FFF71FFF636B0643580654BF26F438
S31500003E50000626F440060135A37D990719D5627E32
S31500003E60520716D5E26CD00753D5052DCED806F0ED
S31500003E70807300950193B8F90230B8F9002004F177
S31500003E804C013846FFF7FEFEA37D0643013526F4B6
S31500003E9000065907BAD5637E1A07B7D5636EDB07E6
S31500003EA03ED5052DB2D8009504F1640106F0807464
S31500003EB0B8F90230B8F9002001943846FFF7E2FE5F
S31500003EC0064326F40006A1E7042D9FD8A37D990793
S31500003ED026F4000605F10205DBD5C0E706F080737F
S31500003EE000950193B8F90230B8F9002004F11C01DD
S31500003EF0FFF7C8FEE3695906637E40EA060054BF31
S31500003F0020F4000620F440069A0705F10105A3D522
S31500003F1087E7042D3FF67AAF26F400060235B8E7A8
S31500003F20042D98BF26F4000670E700BF38B5054695
S31500003F30084605F007FC0446B8B10122114605F013
S31500003F4053FC420144BF012385F8C8318303C5F8F9
S31500003F5080000CD5EB6D31220121204605F038FC9E
S31500003F60204605F045FDC5F88400204638BDAB6EF9
S31500003F7043F00103AB66EDE708B505F015FC012833
S31500003F8014BF0220002008BD13460A46012105F091
S31500003F901FBC00BF10B5044600220121204605F0D3
S31500003FA023FCC307F8D410BD38B5836E8469054673
S31500003FB0D8070AD501210022204605F015FC810705
S31500003FC0F8D138BDAB6E9A0707D5002201212046ED
S31500003FD005F00AFC0307F5D4F3E7C82204212046BE
S31500003FE005F07EFCF1E700BF70B5846E0B6BE4074D
S31500003FF005460BD41A68AAB190F9C911806991B126
S31500004000BDE870403222012105F0E2BB92B94C684E
S3150000401014B907E024682CB161682846FEF73CFD18
S315000040200328F7D170BD1346BDE870403222012146
S3150000403005F0CEBBBDE870401968FEF72DBD00BF88
S315000040402DE9F04F2DED028BA9B09346BDF9D06056
S31500004050BDF9D4200796A2EB0309A6EB0B0608923E
S3150000406056EA0902BDF9D880379F00F0428291F8DE
S31500004070D6A008F10F020D46BAF1010F4FEA620110
S3150000408004460C91069100F0708217F400520992D2
S3150000409040F03582099A1392BDF818100A91002E45
S315000040A040F34382079A0F320A4422F00F02ADF81A
S315000040B06420ABEB010222F00F02B9F1000FADF85C
S315000040C0602040F34382089A0A990F320A4422F08C
S315000040D00F02ADF866205A1A22F00F02ADF86220E0
S315000040E018A920460B9304F06BFC002800F001820F
S315000040F0BDF860200B9BABEB020B0FFA8BF20B9219
S31500004100BDF8622015929BB20E939B1A1BB2B8F1B2
S315000041102F0F0D9304DCBAF1020F08BF4FF0010A0E
S3150000412007F00303032B95F8D53003F0030300F0E3
S31500004130B382032B00F05A841CAB08EE103A1846E3
S31500004140B8F11F0F17AB0293CDE900970D9A0B99A3
S31500004150334640F31C82FFF7EFFA1C9B03EBC823A0
S315000041601C93BAF1010F4FEA0833119300F0008354
S3150000417007F001030F9307F0020312932946204626
S3150000418002F01AFCD5F828311093B9F1000F40F36C
S315000041907C82F60FAB7D109ADFF8F8BB02F418525A
S315000041A013F0060F42EA0B0B14D0099ACDF800B0B3
S315000041B0BAF1020F14BF02230523002A18BF0523F4
S315000041C018AA29462046FFF711FE10F4000F834671
S315000041D008BF002695F8D43098072FD50B9AA5F876
S315000041E090200D9AA5F8922095F80E2142F008022B
S315000041F085F80E2119074FF02102EA67209A40F14F
S31500004200E1822199524212010801D5F8D01092FBA1
S31500004210F1F2C5F88420D5F8CC2090FBF1F05B07CD
S31500004220C5F880004FEA0230C5F8880006D5179B0E
S315000042301B0193FBF1F31344C5F8CC30334618AA9F
S315000042402946204601F004FF334618AA294620468F
S3150000425003F01AFDBAF1020F00F024820F9B002B27
S3150000426000F06A820023149300234BF4806B0E93B4
S31500004270B80500F1AA831F9BB9F1000F03F50043AF
S31500004280C8BF01331F93129B83B10E9B002B00F016
S3150000429094824BF4806B790500F17C83229BB9F103
S315000042A0000F03F50043D8BF0133229317F4C05F14
S315000042B014D03A0505D51FAB93E80700389B83E871
S315000042C00700FB0405D522AA07CA389B0C3383E8EE
S315000042D0070018AB03CB399B18605960002E40F0DD
S315000042E03182B046099BA3B1139BB80503F580390B
S315000042F006D53A9BD3E9002352EA030140F0358400
S315000043007A0506D53A9BD3E9022352EA030140F027
S31500004310CB83D4E96E031C9A013B00F10801C4F873
S31500004320B811002B42604FF004020260C4F8BC31A1
S3150000433005DCD4F8C03120469847D4E96E131D98A1
S31500004340013B01F10802C4F8B821002B48604FF088
S315000043500A000860C4F8BC3105DCD4F8C031204638
S315000043609847D4E96E231E98013B02F10801C4F870
S31500004370B811002B50604FF010001060C4F8BC312B
S3150000438005DCD4F8C03120469847D4E96E130E9A5E
S315000043901F98013B002A00F0008101F10802C4F8D1
S315000043A0B821002B48604FF008000860C4F8BC3103
S315000043B005DCD4F8C03120469847D4E96E2320980E
S315000043C0013B02F10801C4F8B811002B50604FF010
S315000043D00E001060C4F8BC3105DCD4F8C0312046AC
S315000043E09847D4E96E132198013B01F10802C4F8FD
S315000043F0B821002B48604FF014000860C4F8BC31A7
S3150000440005DCD4F8C03120469847D4E96E232298BB
S31500004410013B02F10801C4F8B811002B50604FF0BF
S3150000442005001060C4F8BC3105DCD4F8C031204664
S315000044309847D4E96E132398013B01F10802C4F8AA
S31500004440B821002B48604FF00B000860C4F8BC315F
S3150000445005DCD4F8C03120469847D4E96E23249869
S31500004460013B02F10801C4F8B811002B50604FF06F
S3150000447011001060C4F8BC3140F300811198013B73
S3150000448001F10802C4F8B821002B48604FF016006D
S315000044900860C4F8BC3105DCD4F8C0312046984722
S315000044A0D4E96E2302F10801C4F8B811013B0021DA
S315000044B08B42C2F804B01160C4F8BC3103DCD4F8F6
S315000044C0C03120469847069F0C9B1F440F373F116B
S315000044D018A93A462046002E5CD002F0BDFDBAF17E
S315000044E0020F00F07381012029B0BDEC028BBDE8FC
S315000044F0F08F002029B0BDEC028BBDE8F08F95F857
S31500004500D720042A00F04C81B5F9D82002EB6802C6
S3150000451002EB82011203139241F38F020692BDF859
S3150000452018100A91002E3FF7BDAD0BF10F020A4499
S3150000453022F00F02ADF86420079A521A22F00F02F9
S31500004540B9F1000FADF860203FF7BDAD0A9903F150
S315000045500F020A4422F00F02ADF86620089A521A9A
S3150000456022F00F02ADF86220BAE507F00302032A33
S315000045703FF48BAD01EB4102C1EBC20242F30F12D5
S31500004580069217F4005209923FF484ADB7E7FFF79D
S3150000459025F9E2E502F0D2FCA1E701F10802C4F830
S315000045A0B821002B48604FF005000860C4F8BC3104
S315000045B005DCD4F8C03120469847D4E96E2320980C
S315000045C0013B02F10801C4F8B811002B50604FF00E
S315000045D00B001060C4F8BC3105DCD4F8C0312046AD
S315000045E09847D4E96E132198013B01F10802C4F8FB
S315000045F0B821002B48604FF011000860C4F8BC31A8
S3150000460005DCD4F8C03120469847D4E96E232298B9
S31500004610013B02F10801C4F8B811002B50604FF0BD
S3150000462008001060C4F8BC3105DCD4F8C03120465F
S315000046309847D4E96E132398013B01F10802C4F8A8
S31500004640B821002B48604FF00E000860C4F8BC315A
S3150000465005DCD4F8C03120469847D4E96E23249867
S31500004660013B02F10801C4F8B811002B50604FF06D
S3150000467014001060C4F8BC313FF700AFD4F8C03165
S3150000468020469847D4E96E13F8E600F00782002E1C
S31500004690D4BF002601267DE5032B00F0C5824FF02E
S315000046A0000A49E508F110080F9B4FEA68021492C8
S315000046B0002B00F05881BDF860300799CB1A1BB269
S315000046C0002E40F0C681BDF862100898411A0FFA14
S315000046D081F803EB420CBCF1000F4FEA42004FF0A9
S315000046E0000A1A4623DD01210E9108EB000CBCF1ED
S315000046F0000F14DDA2EB000CBDF960E0BDF96420EB
S31500004700A2EB0E0294450ADAA8EB0002BDF966C0D8
S31500004710BDF96200ACEB000C6245C0F223830F9B2F
S31500004720002B3FF4B0AD0E9B002B3FF49DAD012353
S315000047304BF4005B0E939BE5129B002B3BD114932D
S315000047400E93B3E5BDF96230BDF96680A8EB0308A8
S315000047504FEA281818EE100A4146FFF787FA414635
S315000047601FA8FFF783FA414622A8FFF77FFAB9E5AB
S3150000477017F001030F9306D1119A1F9BA2F5803201
S3150000478003EB62031F9317F0020312937FF4F6AC58
S31500004790119A229BA2F5803203EB62032293EDE489
S315000047A0069A02EB820242F38F0206924FEA6802F1
S315000047B01203139270E40F9B149300234BF4005BD7
S315000047C00E9368E51001219A12011EE5BDF81C90B2
S315000047D0DDF850B0BDF820A01FFA8BF309F10F02E7
S315000047E01A4422F00F02ADF86C200AF10F021A44A7
S315000047F022F00F02ADF86E20A9EB0302AAEB030329
S3150000480022F00F0223F00F031AA92046ADF8682004
S31500004810ADF86A3004F0D4F800283FF464AEBDF871
S315000048206A30CDF804B0AAEB030A0FFA8AF30093B4
S31500004830BDF868304FF0000AA9EB03031BB25246DD
S3150000484029462046CDE903AACDF808A0FDF734FD98
S31500004850109BDFF8449503F400731AAA29462046F4
S3150000486043EA0909534601F0F3FB53461AAA2946BF
S31500004870204603F009FAAB7D13F0060F40F00481E1
S31500004880002E00F0F281BDF96030BDF96820249851
S31500004890BDF96210D21ABDF96A3040425B1A249003
S315000048A01211C8EB2318229B23995B4202FB11329B
S315000048B0D4E96E5300FB182808F10112013B05F1FB
S315000048C00800C4F8B801002B6A604FF006022A609F
S315000048D0C4F8BC3106DCD4F8C03120469847D4E988
S315000048E06E0323994A42013B00F10801C4F8B8114E
S315000048F0002B42604FF00C020260C4F8BC3105DCAC
S31500004900D4F8C03120469847D4E96E13249A013B67
S31500004910504201F10802C4F8B821002B48604FF05C
S3150000492012000860C4F8BC3105DCD4F8C03120465A
S315000049309847D4E96E2302F10801C4F8B811013B87
S3150000494000218B42C2F804901160C4F8BC3103DC2C
S31500004950D4F8C0312046984747F30B121AA92046CF
S3150000496002F0ECFABFE5002E7AD1DDF83480129B16
S31500004970002B40F096804BF4005B0B9901EB420351
S31500004980002B4FEA42000A4640F3478100210B9B69
S315000049900E91AAE6089BBDF86220BDF860109A1A2F
S315000049A0079B591A3A9BDB685B4200933A9B9B68CC
S315000049B001205B42019012B209B222A8FFF70AF960
S315000049C0069B5B001BB2069370E43A9B0D9A5B68EC
S315000049D00093002301933A9B0B991B681FA8FFF7CE
S315000049E0F9F80A9B5B001BB206934CE41CAB184615
S315000049F008EE103A17AB0D9A0B990393CDE90175A2
S31500004A003346CDF80090FEF743FED5F810311C99D9
S31500004A1008FB03F201EB6211BAF1010F1C914FEA98
S31500004A2022114FEA621228D117F001000F9002D12D
S31500004A301F9810441F9017F00200129002D122987E
S31500004A40024422925B08A3F580330B441193FFF7CF
S31500004A5095BBBDF866100898091A0FFA81F838E672
S31500004A60BDF86630159919440B46BDF862105B1AFD
S31500004A700E995B1A0FFA83F879E707F001020F9295
S31500004A8007F002021292DDE7CDF8009029460323D3
S31500004A901AAA2046FFF7AAF98146F1E64E46FFF725
S31500004AA079BB4FF0000A68E708990092BDF86220CA
S31500004AB007988A1ABDF86010411A109800F48050C1
S31500004AC040EA0B0040F0080B002001905B4212B256
S31500004AD009B225A8FFF79AF8002E40F039813B0469
S31500004AE040F10381259BD4F8B82109EB0300D4F8E3
S31500004AF0BC3102F10801013BC4F8B811002B50602B
S31500004B004FF007001060C4F8BC3105DCD4F8C031A2
S31500004B1020469847D4E96E132698013B01F1080216
S31500004B20C4F8B821002B48604FF00D000860C4F8A7
S31500004B30BC3105DCD4F8C03120469847D4E96E2351
S31500004B402799013B02F10800C4F8B801002B516017
S31500004B504FF013011160C4F8BC313FF7DCABD4F859
S31500004B60C03120469847FFF7D4BB1098009200F456
S31500004B70006040EA0B0040F0040B002001900D9A03
S31500004B800B995B4225A8FFF741F8002E40F0E5801F
S31500004B907904D4F8B821259B77D409EB0300D4F81F
S31500004BA0BC3102F10801013BC4F8B811002B50607A
S31500004BB04FF006001060C4F8BC3105DCD4F8C031F3
S31500004BC020469847D4E96E132698013B01F1080266
S31500004BD0C4F8B821002B48604FF00C000860C4F8F8
S31500004BE0BC3105DCD4F8C03120469847D4E96E23A1
S31500004BF02799013B02F10800C4F8B801002B516067
S31500004C004FF012011160C4F8BC313FF779ABD4F80C
S31500004C10C03120469847FFF773BB129B002B7FF4E9
S31500004C20CCAD0E93FFF742BB1CAB184608EE103A0C
S31500004C3017AB0D9A0B990393CDE901753346CDF861
S31500004C400090FEF725FDD5F810311C9A08FB03F1FC
S31500004C5002EB61121C9207F001020F9207F00202AA
S31500004C60091112924FF0000AECE6BDF96030BDF969
S31500004C706820BDF96A802498D21ABDF96230A8EB83
S31500004C80030812114FEA28180DE6A9EB0300D4F821
S31500004C90BC3102F10801013BC4F8B811002B506089
S31500004CA04FF006001060C4F8BC3105DCD4F8C03102
S31500004CB020469847D4E96E13269A013B504201F1EB
S31500004CC00802C4F8B821002B48604FF00C000860B9
S31500004CD0C4F8BC3105DCD4F8C03120469847D4E985
S31500004CE06E232799013B494284E7D4F8B801D4F8EA
S31500004CF0BC31259A013BA9EB020200F10801C4F878
S31500004D00B811002B42604FF007020260C4F8BC31B4
S31500004D1005DCD4F8C03120469847D4E96E13269AAC
S31500004D20013B504201F10802C4F8B821002B48604B
S31500004D304FF00D000860C4F8BC3105DCD4F8C03172
S31500004D4020469847D4E96E232799013B4942F9E664
S31500004D5025A84146FEF78AFFC1E625A84146FEF78B
S31500004D6085FF15E7149A01920022CDE903220292EB
S31500004D702046CDF8008002222946FDF79DFA109BB9
S31500004D8003F4006040EA0B0040F4801B4BF0840BF8
S31500004D90C5E400BF1380C000450840002DE9F04778
S31500004DA088B097B2BDF940501035C5F34F0C9EB28E
S31500004DB007F10F03634423F00F03ADF81C3006F12F
S31500004DC00F03634423F00F03ADF81E30A7EB0C036B
S31500004DD0A6EB0C0C884623F00F032CF00F0C06A94B
S31500004DE00446ADF81830ADF81AC003F0E9FD10B965
S31500004DF008B0BDE8F087BDF81A300022CDE90322DD
S31500004E00F61A6D10BDF81830019536B2029200966A
S31500004E10D8F82861FB1A1BB241462046FDF74CFA2A
S31500004E2006F4007343F4800343F04103009306AA9B
S31500004E30022341462046FEF7D9FF119B0F35064651
S31500004E402D09002B5DD0139BBDF91A20B3F90090F4
S31500004E50BDF91830A9EB0309139BB3F902309B1A6D
S31500004E604FEA231A119BDA074FEA291978D4022749
S31500004E70119B9B0746D5129B129ADB6811695269F2
S31500004E80C3F5803309FB013302FB0A335A1CD4E90C
S31500004E906EC3013B0CF10800C4F8B801002BCCF836
S31500004EA004204FF00702CCF80020C4F8BC3140F3D0
S31500004EB0B7804942013B00F10802C4F8B821002B33
S31500004EC041604FF00D010160C4F8BC3140F38C80A5
S31500004ED012994969013B494202F10800C4F8B80138
S31500004EE0002B51604FF013011160C4F8BC3176DD20
S31500004EF0032F46F4805646F0080614BF02270427FF
S31500004F0000E002273B4606AA414600962046FEF7E9
S31500004F106DFFD4E96E2302F10801C4F8B811013B14
S31500004F2000218B4250601160C4F8BC3103DCD4F818
S31500004F30C0312046984706AA41462046002301F084
S31500004F4087F80023414606AA204602F09DFE204629
S31500004F502A4606A901F0F2FF012008B0BDE8F08755
S31500004F60129B1B68C3F58032129B59689B6809FB2C
S31500004F70012203FB0A22D4E96E730132013B07F1D9
S31500004F800800C4F8B801002B7A604FF006023A60B8
S31500004F90C4F8BC313BDD4A42013B00F10801C4F8CC
S31500004FA0B811002B42604FF00C020260C4F8BC310D
S31500004FB026DD129A9268013B524201F10800C4F8BC
S31500004FC0B801002B4A604FF012020A60C4F8BC31E7
S31500004FD011DD46F4006646F00406032748E7D4F8D8
S31500004FE0C0312046984783E7D4F8C0312046984719
S31500004FF0D4E96E236CE7D4F8C03120469847E8E739
S31500005000D4F8C03120469847D4E96E13D1E7D4F8D6
S31500005010C03120469847129B5968D4E96E03BAE717
S31500005020D4F8C03120469847129B1969D4E96E031B
S315000050303FE700BF2DE9F04F2DED028BA7B00446E8
S31500005040BDF9CCA0BDF9C8600693AAEB0300BDF973
S31500005050D0300F960D4609933146BDF9D4300893EA
S31500005060B61A56EA0003CDE9101A0D9207D14FF091
S315000050700008404627B0BDEC028BBDE8F08F00FB70
S3150000508000F095F8D630079306FB060000F0EAFE1E
S31500005090069B0899A3EB0A074FF0807393FBF0F287
S315000050A002FB07F702FB06F61392099A0D983F12C8
S315000050B0361207FB02F906FB02F807FB01F206FBB4
S315000050C001F3511412915914149100EB69410E9198
S315000050D0A0EB694106980C9100EB684B4FEA684ECD
S315000050E0A0EB68480F984FEA694C00EB6249A0EBC9
S315000050F06242AAEB63410B920AEB6342079B0A9159
S31500005100022B00F07C82369B03F00303032B00F096
S315000051108682079B012B00F08683DDE90B300E9912
S3150000512012924945A8BF49468342A8BF0346994201
S31500005130B4BF21F00F0323F00F031BB20E99ADF895
S315000051405830DDE90B304945B8BF49468342B8BF00
S3150000515003469942CCBF01F10F030F3323F00F032F
S315000051601BB2ADF85C300A9B93455946A8BF114661
S315000051704345A8BF43469942B4BF21F00F0323F02D
S315000051800F031BB2ADF85A300A9B93455946B8BF78
S3150000519011464345B8BF43469942CCBF01F10F03C0
S315000051A00F3323F00F031BB216A92046ADF85E306D
S315000051B003F006FC00283FF45AAFBDF858100F9BC9
S315000051C0BDF85AE01B96581A069B1F97A3EB0E0CC8
S315000051D00D9B0FFA8CF2A3EB010C0FFA8CF300B2C5
S315000051E0AAEB0E0C06FB00F00FFA8CFC07FB1C006A
S315000051F0001100F500401D9007FB02F006FB1300AE
S31500005200001100F580301592129A1A9095F8D50083
S315000052101493ABEB0E03ABEB020B0E9A00F00300FC
S31500005220511A7F4276420328A2EB09091C971E9663
S315000052301AB209B200F0A782002620AB18460196E2
S3150000524008EE903ACDF800B04B46FEF7B1FB0A9B4C
S315000052500C98BDF85A20BDF858100196A3EB080328
S3150000526000930B9B411AA8EB020223AE1B1A12B243
S3150000527009B23046FEF79CFB209B03F500432093C2
S31500005280239B03F500432393079B012B00F05B82CE
S315000052902946204601F090FBD5F828310E93079B4E
S315000052A0022B369B40F0A78113F00103129303D122
S315000052B00E9B43F400730E93369B9F0703D40E9BFD
S315000052C043F480630E9395F8D43098072FD5149A3B
S315000052D0A5F89020159AA5F8922095F80E2142F08F
S315000052E0080285F80E2119074FF02102EA671B9A7A
S315000052F040F1C3821C99524212010801D5F8D01020
S3150000530092FBF1F2C5F88420D5F8CC2090FBF1F0A1
S315000053105F07C5F880004FEA0230C5F8880006D559
S31500005320139B180190FBF1F11144C5F8CC100A9BB0
S31500005330A8EB0303002B40F37581DDE90B239A1AD2
S31500005340002AC0F27A81002316AA2946204600F0D8
S315000053507FFE002316AA2946204602F095FC069BEE
S31500005360BDF95A909A45AABF069BAAEB0909A3EB79
S3150000537009090027DDE908120E9B8A4203F4F05B57
S31500005380AB7DB8BF0A464BF4400B09EB221213F073
S31500005390060F08EE102A4BF00F0B40F06082129BAE
S315000053A0002B00F06181089B5B100B9301234FF0EB
S315000053B000080A93002F40F06A81B946D4E96E13BB
S315000053C00020013B01F108028342C4F8B821C1F86C
S315000053D004B00860C4F8BC3105DCD4F8C0312046FE
S315000053E09847D4E96E2395F8D51001F003010329F7
S315000053F000F0E8811A99013B02F10800C4F8B801EF
S31500005400002B51604FF004011160C4F8BC3105DC7B
S31500005410D4F8C03120469847D4E96E031B9A013B65
S3150000542000F10801C4F8B811002B42604FF00A02DF
S315000054300260C4F8BC3105DCD4F8C0312046984778
S31500005440D4E96E131C98013B01F10802C4F8B82197
S31500005450002B48604FF010000860C4F8BC3105DC32
S31500005460D4F8C03120469847D4E96E231D98013BF5
S3150000547002F10801C4F8B811002B50604FF0050086
S315000054801060C4F8BC3105DCD4F8C031204698471A
S31500005490D4E96E131E98013B01F10802C4F8B82145
S315000054A0002B48604FF00B000860C4F8BC3105DCE7
S315000054B0D4F8C03120469847D4E96E231F98013BA3
S315000054C002F10801C4F8B811002B50604FF011002A
S315000054D01060C4F8BC3105DCD4F8C03120469847CA
S315000054E0D4E96E132098013B01F10802C4F8B821F3
S315000054F0002B48604FF006000860C4F8BC3105DC9C
S31500005500D4F8C03120469847D4E96E232198013B50
S3150000551002F10801C4F8B811002B50604FF00C00DE
S315000055201060C4F8BC3105DCD4F8C0312046984779
S31500005530D4E96E132298013B01F10802C4F8B821A0
S31500005540002B48604FF012000860C4F8BC3105DC3F
S31500005550D4F8C03120469847D4E96E232398013BFE
S3150000556002F10801C4F8B811002B50604FF0070093
S315000055701060C4F8BC3105DCD4F8C0312046984729
S31500005580D4E96E132498013B01F10802C4F8B8214E
S31500005590002B48604FF00D000860C4F8BC3105DCF4
S315000055A0D4F8C03120469847D4E96E232599013BAB
S315000055B002F10800C4F8B801002B51604FF0130146
S315000055C01160C4F8BC3103DCD4F8C03120469847DA
S315000055D018EE102A16A92046002F71D001F03CFDC6
S315000055E0079B022B71D04FF00108404627B0BDEC57
S315000055F0028BBDE8F08F03F00103129363E6099B6B
S315000056002F2B03DC369B43F001033693089B2F2B8D
S315000056103FF779AD369B43F00203369373E50023DB
S3150000562007937AE5BBF1000F4A463FF789AE3FF490
S315000056308AAEB9F1000F7FF786AE012316AA294676
S31500005640204600F005FD012316AA2946204602F051
S315000056501BFB069BBDF95E909A45B4BFA9EB0309F7
S31500005660A9EB0A09012785E6369B13F0020300F031
S315000056700881099BDDF84880CDF828805B100B93E4
S31500005680069B11930D9B1093002F3FF496AEBDF928
S315000056905E20BDF95A30D31A4FEA23191AA8494693
S315000056A0FEF7E4FA49461DA8FEF7E0FA18EE900A5E
S315000056B04946FEF7DBFA49463046FEF7D7FA7DE65D
S315000056C001F03CFC079B022B8DD1BDF82C10BDF8D8
S315000056D04020BDF844305018521A0F3022F00F0205
S315000056E0ADF8602020F00F02ADF86420CA185B1AEE
S315000056F023F00F030F32ADF8623018A922F00F0322
S315000057002046ADF8663003F05BF9002840F0E180F2
S31500005710B8F1000F3FF467AF0A9B2BB9089B0993BA
S315000057200F9BCDF818A00D93099B0093389B03930C
S315000057302046379B02930124069B0D9A0194294625
S31500005740FFF72CFB95E4369B13F00103129307D168
S31500005750099A1A9B1203A2F5803203EB62031A938D
S31500005760369B9B0707D4089A1D9B1203A2F580322D
S3150000577003EB62031D932946204601F01DF9D5F877
S3150000578028310E939FE520AB1846CDE900B508EE0B
S31500005790903A4B46FEF790F90A9B0C98BDF85A20B2
S315000057A0BDF858100195A3EB080300930B9BA8EBDB
S315000057B00202411A23AE1B1A12B209B23046FEF794
S315000057C07BF961E5079902293FF414AE0E9911F4AD
S315000057D0007F1A990FD11B9E1C98B5F914C036018B
S315000057E0000196FBFCF690FBFCF0CDE91B6009017D
S315000057F091FBFCF11A910E9840053FF5FCAD1E9801
S315000058001D9EB5F914E04FEA001C1F9836014FEAB9
S31500005810001B96FBFEF69CFBFEF01D969BFBFEF620
S31500005820CDE91E06E7E5369BD80709D40E9BA3EB08
S315000058300E030E930C9BA3EB0E030C93E344E04480
