S00E00004755494170702E7372656310
S31500000000709B052021FA0100A9F401001DFA0100E8
S315000000101DFA01001DFA01001DFA01000000000092
S315000000200000000000000000000000001DFA0100B2
S315000000301DFA0100000000005DCE030005CF03009D
S31500000040D9DD0100D9DD01001197000061E900004A
S315000000504DCF01009DCF0100EDCF010051B701004A
S31500000060F19E0100719A0100C19D0100499C0100A9
S315000000701DAE010051AE0100858801003D870100DB
S315000000800D8801005586010081A20000FFFFFFFFD9
S31500000090FFFFFFFFFFFFFFFFFFFFFFFFFFFFFFFF6A
S315000000A0FFFFFFFFFFFFFFFFFFFFFFFFFFFFFFFF5A
S315000000B0FFFFFFFFFFFFFFFFFFFFFFFFFFFFFFFF4A
S315000000C0FFFFFFFFFFFFFFFFFFFFFFFFFFFFFFFF3A
S31500000400FFFFFFFFFFF9FFFFFFFFFFFFFFFFFFFFFC
S31500000410FFFFFFFFFFFFFFFFFFFFFFFFFFFFFFFFE6
S31500000420FFFFFFFFFFFFFFFFFFFFFFFFFFFFFFFFD6
S31500000430FFFFFFFFFFFFFFFFFFFFFFFFFFFFFFFFC6
S31500000440FFFFFFFFFFFFFFFFFFFFFFFFFFFFFFFFB6
S31500000450FFFFFFFFFFFFFFFFFFFFFFFFFFFFFFFFA6
S31500000460FFFFFFFFFFFFFFFFFFFFFFFFFFFFFFFF96
S31500000470FFFFFFFFFFFFFFFFFFFFFFFFFFFFFFFF86
S31500000480FFFFFFFFFFFFFFFFFFFFFFFFFFFFFFFF76
S31500000490FFFFFFFFFFFFFFFFFFFFFFFFFFFFFFFF66
S315000004A0FFFFFFFFFFFFFFFFFFFFFFFFFFFFFFFF56
S315000004B0FFFFFFFFFFFFFFFFFFFFFFFFFFFFFFFF46
S315000004C0FFFFFFFFFFFFFFFFFFFFFFFFFFFFFFFF36
S315000004D0FFFFFFFFFFFFFFFFFFFFFFFFFFFFFFFF26
S315000004E0FFFFFFFFFFFFFFFFFFFFFFFFFFFFFFFF16
S315000004F0FFFFFFFFFFFFFFFFFFFFFFFFFFFFFFFF06
S31500000500D097002020000700F09700202104070064
S31500000510C4960020FD014400E80304206405400061
S315000005202C960020FA01430028960020FB01430880
S3150000053024960020FC0143101C0D04200A000648E6
S315000005407C97002070081500889700206D08150814
S31500000550809700206F081510849700206E081518E4
S31500000560C0960020FF014500BC960020FE0145080C
S3150000057030090420770114083C0904207401141082
S315000005803409042076011420380904207501142842
S31500000590B0970020730133212000000020000100E5
S315000005A02F0000002F0001000C00010011000000C8
S315000005B0300000003000010024000000240001008B
S315000005C02400020024000300240004002400050087
S315000005D013000000170000002300000021000000A7
S315000005E021000100070000000700010007000200CB
S315000005F007000300070004000700050007000600C7
S315000006000700070012000000440000000800000078
S315000006100B00000041000000400000004000010007
S3150000062004000000430000002B0000002B000A001D
S315000006302B000B002B000C002B000D002B000100E3
S315000006402B0002002B0003002B0004002B000500EA
S315000006502B0006002B0007002B0008002B000900CA
S315000006600600000006000A0006000B0006000C004B
S3150000067006000D0006000E0006000F000600010031
S31500000680060002000600030006000400060005003E
S31500000690060006000600070006000800060009001E
S315000006A015000000150001001500020031000000D1
S315000006B02A000000450000001000000003010000B1
S315000006C003000000030001000F0000000D00000001
S315000006D02D000000420000002C0000002C0001004C
S315000006E02C0002002C00030032000000280000004D
S315000006F0180000001400000014000100140002009D
S315000007001400030014000400140005001400060081
S31500000710140007001400080014000900340000004B
S31500000720340001001600000016000100350000002C
S3150000073036000000360001002200000033000000F1
S3150000074033010000290000000348044B834202D015
S31500000750034B03B118477047840EFE1F840EFE1F1D
S31500000760000000000548064B1B1AD90F01EBA30138
S31500000770491002D0034B03B118477047840EFE1F81
S31500000780840EFE1F0000000010B5064C237843B906
S31500000790FFF7DAFF044B13B10448AFF300800123DF
S315000007A0237010BD000FFE1F0000000088680B00BC
S315000007B008B5054B1BB105490548AFF30080BDE8F8
S315000007C00840FFF7CFBF00BF00000000040FFE1F68
S315000007D088680B00002310B503750C684FF0FF32D4
S315000007E0636802612288A1680280E268C260C0E98B
S315000007F00131D3E9011218681268904738B9A36825
S31500000800D3E90112BDE8104012681868104710BD00
S3150000081020B14FF00223036000207047012070478B
S31500000820D0E90123996870B504461868CB68156845
S315000008309847014670B90C4B20881B6A98470220DE
S315000008403BF0B0FE63689B6828461B6998471228F0
S31500000850014601D0084670BD63689B6828461B693F
S31500000860BDE87040184700BFF40D0B002DE9F047B6
S315000008700A2782B006460D4691469846BA467369DF
S3150000088028469847B468CDF800A00023424649465A
S315000008902846A047B3690446284698470CB1013F4D
S315000008A0EDD1204602B0BDE8F08700BFF0B5274A7B
S315000008B04368176A9D681E6883B000210446008855
S315000008C0B84702203BF06EFE01212088B84702207F
S315000008D03BF068FE1E4A019204230DEB03023146EB
S315000008E02846FFF7C3FF68BB4CF20403ADF804309B
S315000008F001AA022331462846FFF7B8FF10BB40F68F
S315000009002243ADF8043001AA022331462846FFF7F8
S31500000910ADFFB8B90B23ADF8043001AA0223314666
S315000009202846FFF7A3FF68B9E0238DF8043001AA33
S31500000930314628460123FFF799FF18B90523237589
S3150000094003B0F0BD642003B0F0BD00BFF40D0B0092
S31500000950007427042DE9F04FD0E901231468956847
S315000009609A6885B007468846186853684FF0FF3185
S315000009709847064618B1304605B0BDE8F08F032308
S3150000098088F804304FF00A0B6323C8F800008DF88E
S315000009900B30D9466B69204698470123CDF8009065
S315000009A01A460DF10B01AE682046B047AB69824688
S315000009B0204698472046BAF1000F11D16B69984737
S315000009C0CDF8009053466E6801220DF10B012046CA
S315000009D0B047AB69824620469847BAF1000F07D068
S315000009E0BBF1010BD6D16426304605B0BDE8F08FC9
S315000009F09DF80B305B0750D44FF00A09CA466B6965
S31500000A0020469847CDF800A06E680023042203A96B
S31500000A102046B047AB690646204698471EB1B9F155
S31500000A200109ECD1DFE79DF80C309DF80D109DF81B
S31500000A300E009DF80F2003F00F0341EA032100F09A
S31500000A400F00BB8942EA0022F88903FB01F1234B20
S31500000A5000FB02F2A3FB0140A3FB0243091AD21AD0
S31500000A6000EB510003EB520340F3CF2043F3CF23B7
S31500000A70A8F80000A8F80230397D4A1E012A10D9CC
S31500000A80032998F8042010D0042A3A7518D0388221
S31500000A9030467B8205B0BDE8F08F042388F8043029
S31500000AA0AAE703223A7598F80420032AECD1B7F98D
S31500000AB0102082420BD0022288F804203A75E6E71D
S31500000AC03B69C8F80030304605B0BDE8F08FB7F98D
S31500000AD012209A4214BF02220122EDE70101100002
S31500000AE030B4039CE50624F0300C03D5D0F88050D2
S31500000AF02D021DD5A50603D5D0F88050AD0217D519
S31500000B00ACF10D0CBCF1020F0AD9406AC0F8703185
S31500000B10029BC0E95A12C0E95D34002030BC704720
S31500000B20D0F8805015F4803FEFD1EDB2092DECD806
S31500000B30092380F8C63130BC184670472DE9F04FBE
S31500000B4091B0446A1F9EBDF868B0056B9A46BDF920
S31500000B506C300893D4F8783103F01003904607936D
S31500000B60BDF97020D4F86C310992BDF974200A924F
S31500000B70B3F5006FBDF97820D4F870310B920AEB0B
S31500000B800102A8BF26F008069A42C4BFA3EB0A03D7
S31500000B900D93D4F8743189460BEB0802D8BFCDF813
S31500000BA034909A42C4BFA3EB0B030E930746E37D32
S31500000BB0D8BFCDF8388025B116F480720C9200F0BB
S31500000BC0DF800C930321384601F09AF90022114682
S31500000BD0384606F083FB079B002B00F01281D4F801
S31500000BE068310D9306F00F01384606F03BFFD4F846
S31500000BF078010D99D4E95B230190D4F87401009033
S31500000C00384606F089FDB30600F1A5804FF07F4314
S31500000C101A46F00606F0400140F1AA80A0680029B5
S31500000C2000F02881E16802430B43C4E9562394F897
S31500000C300E3143F0050384F80E31BDF82030102B39
S31500000C4040F20981099A102A4FEA0951B1FBF3FCD7
S31500000C504FEA6C0340F307814FEA0850B0FBF2F00D
S31500000C604210B10544BFC3EB0943CCF1000C71053A
S31500000C7044BFC2EB08424042710748BFA3F5004398
S31500000C803107079948BFA2F5004219B103EB0A43A1
S31500000C9002EB0B42DDF82C90DDF828800490CDE9BC
S31500000CA0002C0022CDE9022241464A46384606F08B
S31500000CB0F1FA09980190089800904B464246214661
S31500000CC0384600F0C9FC002D00F09680F30500F1CF
S31500000CD093802B78E375AB7884F80E316B7884F8C3
S31500000CE0D530D5E90132C4E93F32EB68C4F82C317E
S31500000CF0D5E90431AA6AC4E94D13D5E90631286A53
S31500000D00C4F8F400C4F8EC306B6AC4F8F010C4F808
S31500000D10E820D5E90B21C4E94F216A6BC4F82421E8
S31500000D20C4F8F830D5E90E32C4E95632D5E91112C5
S31500000D30686DEB6CC4F8A800286DC4F8A400C4E97B
S31500000D402612C4F8A030D5E91732C4E92C320020A7
S31500000D5011B0BDE8F08F16F0800200F08880F00632
S31500000D604FF000034FF07F4206F040013FF556AFCB
S31500000D70002900F08180A1680A43E1680B4354E72B
S31500000D802B7094F80E31AB7094F8D5306B70D4E9B3
S31500000D903F32C5E90132D4E94D31D4F82C01D4F8FB
S31500000DA0E8206B61C5E90301D4E93B13D4F8F400EC
S31500000DB02862C5E90613D4F8F830C5E90932D4E942
S31500000DC0562CD4E94F03D4F82411C5E90B03C5E921
S31500000DD00D12C5F83CC0D4E9292CD4E92701D4F872
S31500000DE09830C5F854C0C5E91130C5E91312D4E9E5
S31500000DF02C32C5E91732E5E60C99384601F080F841
S31500000E00A5E7D4F8783123F03003422B37D8DFE852
S31500000E1003F053626B6262496B62625353535353DE
S31500000E205353363636363636363636363636363622
S31500000E30363636363636363636363636363636364C
S31500000E40363636363636363636363636363636363C
S31500000E5036366B626200099A102A4FF000034FF48F
S31500000E60803C3FF7F9AE00224FF48030F9E64FF0B0
S31500000E707F43CEE60343D8E663F07F43D5E606F02C
S31500000E800F01384606F0EEFD0022D4F878010D9BDE
S31500000E901146D4F86C2101900E980090384606F061
S31500000EA03BFCB0E6D7F880309A0226D5154BC4F83D
S31500000EB02C31012384F8E930D4F86C31D4F8682158
S31500000EC003FB0BA31A4406F00F0138460F9206F0F7
S31500000ED0C9FD0F9AD9E7D4F86C31D4F8682103FB21
S31500000EE00BA302EB4302EEE7D4F86C31D4F8682189
S31500000EF003FB0BA302EB8302E5E7092087F8C60193
S31500000F0026E700BF100004002DE9F04385B01E4619
S31500000F10BDF930301746BDF934204BB3002A27DD22
S31500000F20A7F1100999441FFA89F9A6F1100890440F
S31500000F300D4609F10F02002122F00F020B4662F363
S31500000F400F031FFA88F827F00F0262F30F0108F16A
S31500000F500F0222F00F0262F31F43039326F00F03E2
S31500000F6063F31F41029102A9044607F089FC18B9F0
S31500000F70002005B0BDE8F0832946204605F00CFCAC
S31500000F8095F8D53099070FFA89F90FFA88F833D40E
S31500000F90DA0700F135810023009302AA294620468C
S31500000FA002F086FE0023064602AA2946204604F0E1
S31500000FB05DFF002302AA2946204606F07FFDD4F8ED
S31500000FC0B82102F10803C4F8B83100231360D4F83D
S31500000FD0BC315660013B002BC4F8BC3103DCD4F8AD
S31500000FE0C031204698472046002202A905F09CFE03
S31500000FF0012005B0BDE8F083DB0700F1018147EA77
S31500001000090346EA08001B0700F00F0000F09A8269
S31500001010BDF90820D21BD4E96E73120302F58032A3
S3150000102007F10801C4F8B811013B7A6004223A605E
S31500001030C4F8BC31002800F0C181002B05DCD4F8CF
S31500001040C03120469847D4E96E13013B01F10802EE
S315000010504FF00A0C4FF48030002BC4F8B821C1E9D8
S3150000106000C0C4F8BC3105DCD4F8C031204698472E
S31500001070D4E96E23013B002102F1080010278B42C0
S31500001080C4F8B801C2E90071C4F8BC3105DCD4F873
S31500001090C03120469847D4E96E03BDF90820A9EB74
S315000010A002021203013B02F5803200F10801C4F886
S315000010B0B811002B42604FF005020260C4F8BC3143
S315000010C005DCD4F8C03120469847D4E96E13BA48F7
S315000010D0013B01F10802C4F8B821002B48604FF02B
S315000010E00B000860C4F8BC3105DCD4F8C0312046DA
S315000010F09847D4E96E23013B002102F108004FF026
S31500001100110E8B42C4F8B801C2E900E1C4F8BC3143
S3150000111005DCD4F8C03120469847D4E96E03BDF902
S315000011200A20921B1203013B02F5803200F10801EE
S31500001130C4F8B811002B42604FF006020260C4F8F2
S31500001140BC3105DCD4F8C03120469847D4E96E138B
S31500001150013B002001F108024FF00C0C8342C4F859
S31500001160B821C1E900C0C4F8BC3105DCD4F8C031EF
S3150000117020469847D4E96E23013B02F10800122766
S315000011804FF48031002BC4F8B801C2E90071C4F8ED
S31500001190BC3105DCD4F8C03120469847D4E96E034B
S315000011A0BDF90A20A8EB02021203013B02F58032C8
S315000011B000F10801C4F8B811002B42604FF0070295
S315000011C00260C4F8BC3105DCD4F8C031204698472B
S315000011D0D4E96E13013B002001F108020D2683427B
S315000011E0C4F8B821C1E90060C4F8BC3105DCD4F804
S315000011F0C03120469847D4E96E236F49013BC7E0CA
S31500001200BDF90820D5F81001D21BD4E96E7300FB96
S3150000121002F200EB1212013B07F10801C4F8B81103
S31500001220002B7A604FF004023A60C4F8BC3140F3F8
S315000012305481013B01F10802C4F8B821002B486033
S315000012404FF00A000860C4F8BC3140F37481013BDA
S31500001250002102F108074FF0100E8B42C4F8B87156
S31500001260C2E900E1C4F8BC3140F35E81BDF9082053
S31500001270D5F81011A9EB020201FB02F2013B01EBCA
S31500001280121207F10800C4F8B801002B7A604FF07B
S3150000129005023A60C4F8BC3140F33D814942013B46
S315000012A000F10802C4F8B821002B41604FF00B0191
S315000012B00160C4F8BC3140F32781013B002002F1F4
S315000012C008014FF0110C8342C4F8B811C2E900C0FE
S315000012D0C4F8BC3140F3F380BDF90A20D5F81001FB
S315000012E0921B00FB02F200EB1210013B01F1080217
S315000012F0C4F8B821002B48604FF006000860C4F817
S31500001300BC3140F3D580013B002002F108010C27D7
S315000013108342C4F8B811C2E90070C4F8BC3140F386
S31500001320D580013BD5F8102101F108001226002BCB
S31500001330C4F8B8014A600E60C4F8BC3140F3AF800F
S31500001340BDF90A10A8EB010102FB01F102EB111233
S31500001350013B00F10801C4F8B811002B42604FF0C0
S3150000136007020260C4F8BC3140F3C780013B00208D
S3150000137001F108020D268342C4F8B821C1E90060D4
S31500001380C4F8BC3140F3B280D5F81011013B494294
S3150000139002F10800C4F8B801002B51604FF01301A8
S315000013A01160C4F8BC3103DCD4F8C031204698473C
S315000013B00F2300930423F0E50000FFFF002B05DC5C
S315000013C0D4F8C03120469847D4E96E13013B01F1A9
S315000013D008020A264FF48030002BC4F8B821C1E970
S315000013E00060C4F8BC3105DCD4F8C031204698470B
S315000013F0D4E96E23013B002102F108004FF01008EA
S315000014008B42C4F8B801C2E90081C4F8BC3105DCDE
S31500001410D4F8C03120469847D4E96E03BDF90820B8
S31500001420A9EB02021203013B02F5803200F108012A
S31500001430C4F8B811002B42604FF005020260C4F8F0
S31500001440BC3105DCD4F8C03120469847D4E96E1388
S315000014508048013B01F10802C4F8B821002B48601E
S315000014604FF00B000860C4F8BC3105DCD4F8C0317D
S3150000147020469847D4E96E2302F10801013BC4F8DF
S31500001480B81100214FF0110E8B42C2E900E1C4F8F9
S31500001490BC3140F3DA800323009302237DE5D4F8C0
S315000014A0C03120469847D4E96E03D5F8102147E7A6
S315000014B0D4F8C03120469847D4E96E2323E7D4F800
S315000014C0C03120469847D4E96E1305E7D4F8C031F9
S315000014D020469847D4E96E1323E7D4F8C031204656
S315000014E09847D4E96E13D5F81001A2E6D4F8C031B6
S315000014F020469847D4E96E2346E7D4F8C031204603
S315000015009847D4E96E1331E7D4F8C031204698479E
S31500001510D4E96E23D1E6D4F8C03120469847D4E901
S315000015206E03D5F81011B9E6D4F8C03120469847B5
S31500001530D4E96E739AE6D4F8C03120469847D4E9C8
S315000015406E2384E600283FF426ADBDF90A20D4E9CF
S315000015506E03921B120302F58032013B00F1080173
S31500001560C4F8B811002B42604FF004020260C4F8C0
S31500001570BC3105DCD4F8C03120469847D4E96E1357
S31500001580013B002001F108024FF00A0E8342C4F825
S31500001590B821C1E900E0C4F8BC3105DCD4F8C0319B
S315000015A020469847D4E96E23013B02F108004FF02C
S315000015B0100C4FF48031002BC4F8B801C2E900C109
S315000015C0C4F8BC3105DCD4F8C03120469847D4E9CC
S315000015D06E03BDF90A20A8EB02021203013B02F5D5
S315000015E0803200F10801C4F8B811002B42604FF0B8
S315000015F005020260C4F8BC3105DCD4F8C0312046CF
S315000016009847D4E96E13013B002001F108020B272D
S315000016108342C4F8B821C1E90070C4F8BC3105DCC6
S31500001620D4F8C03120469847D4E96E230949013BD6
S3150000163002F10800C4F8B801002B51604FF0110107
S315000016401160C4F8BC313FF726AFD4F8C03120464C
S31500001650984720E70000FFFF10B4BDF9044001944D
S31500001660BDF9084002945DF8044BFFF74DBC00BF7E
S3150000167010B582B00C46816A009313462246BDF926
S3150000168010400194FFF740FC002002B010BD00BFDF
S3150000169010B582B08E460093B0F87030BDF9104098
S315000016A0C16A1344B0F86E20019472441BB212B2A0
S315000016B0FFF72AFC002002B010BD00BF2DE9F04F55
S315000016C005468DB0B5F96C40BDF95800002C45DDD6
S315000016D0102C0F469846E96A0BD091F8D730012BAB
S315000016E040D1B1F9D830A3423CDD91F8D530DB07C3
S315000016F038D493B21FFA80FAA2B21FFA87F9079379
S315000017000AEB420B9B1A1EB20FFA8BFBA9EB0202E5
S3150000171012B233460094CDF804B02846FFF7F4FB26
S31500001720CDE900843346E96A3A462846FFF7ECFBE2
S31500001730CDF804B0009409EB0802E96A334612B208
S315000017402846FFF7E1FB079B01945344E96ACDF86D
S3150000175000801BB23A462846FFF7D6FB00200DB0A4
S31500001760BDE8F08FBFB2A8F10808019492B2C4F3A5
S315000017704F04B8440838083F104400233F1BA044D8
S31500001780083ABFB21FFA88F8121B1E4692B20444EA
S3150000179068F30F0628461D4667F30F0362F31F43DF
S315000017A062F31F462A46A4B267F30F0268F30F05D9
S315000017B064F31F4264F31F45CDE90836CDE90A52AA
S315000017C00023042202920092CDE9033308AA04F012
S315000017D00BFC00200DB0BDE8F08F00BF2DE9F041F5
S315000017E082B01C46BDF9206000960546203620349E
S315000017F00F46904636B2FFF761FF24B2284604F042
S3150000180047FFCDE90046A8F11003A7F11002A96A27
S315000018101BB212B22846FFF777FB284604F058FFA2
S31500001820002002B0BDE8F0812DE9F04182B01F46EC
S315000018300093B0F87030BDF9208016461344B0F816
S315000018406E20CDF804800A4404460D461BB2C16AD8
S3150000185012B2FFF759FB204604F01AFFCDF80480B8
S31500001860A16A009733462A462046FFF74DFB2046DD
S3150000187004F02EFF002002B0BDE8F0812DE9F04F04
S3150000188089B09EB2BDF94C80BDF9489006F10F03B0
S31500001890B8F1000F95B204460F469BB21FFA89F2C3
S315000018A040F3E38002EB68021FFA82FC002005F198
S315000018B00F0161440246634461F30F0263F31F4262
S315000018C0A5EB0C0363F30F00A6EB0C0363F31F40B9
S315000018D0A9EB6803082B22F00F1120F00F103CDD56
S315000018E0B7F9DA30002BCDE9060140DDB4F972C054
S315000018F002B2D21A6245A8BF0FFA82FCB4F974206C
S31500001900ADF818C0C3EB204C944540F30F40A4BF7C
S31500001910C01A02B2ADF81A20B4F9762003FA81F0A3
S315000019209042D8BF02B2B4F97800ADF81C2003EBA0
S31500001930214C844541F30F42C8BFADF81E009A46BC
S3150000194006A9D8BF9B182046D8BFADF81E3006F0B2
S3150000195097FFA0B909B0BDE8F08FB7F9DA30002BD0
S31500001960CDE906010FFA8CF94FF00008BEDC06A996
S3150000197020464FF0000A06F083FF0028EAD0BDF8A3
S315000019801830ED1ABDF81A303946F61A204604F01A
S3150000199003FF2DB2D7F828B136B2B8F1000F00F028
S315000019A0C08008FB08F34B451FFA89FA04DA97F85A
S315000019B0D52012F0010279D008EBD878C8F34F0889
S315000019C008EB0A0300221BB24FF00109CDE90222FF
S315000019D0019339462B4620460096CDF81090AAEB87
S315000019E0080A00F00BFC704A02920FFA8AF3019380
S315000019F002222B46CDE9039900963946204600F08F
S31500001A00FDFBD4F880200BF4206B52014BF0C5038C
S31500001A1045D4009306AA04233946204602F048F925
S31500001A20D4E96E2302F10801C4F8B811013B5060F5
S31500001A3000218B421160C4F8BC312BDD4FF0000A47
S31500001A4006AA39462046002304F010FA0023394638
S31500001A5006AA204606F032F82046524606A905F0A8
S31500001A6063F9012009B0BDE8F08F002002F10F0CE8
S31500001A700146AC4413446CF30F0163F31F41AB1AE8
S31500001A8063F30F00B31A63F31F4021F00F1120F028
S31500001A900F1025E7D4F8C03120469847CEE797F8CF
S31500001AA0D520120602F080721343B2E708F1100146
S31500001AB001EBD171491009030AF1010A0FFA8AF301
S31500001AC002910121019303922B4604912046394647
S31500001AD000960BF4007B00F091FB4BF4004343F0BF
S31500001AE04103009306AA02233946204602F0E0F895
S31500001AF0D4E96E130546013B4FEA083001F10802AE
S31500001B00C4F8B821002B48604FF016000860C4F8EE
S31500001B10BC3142DD02F10801C4F8B811013B556041
S31500001B2086E701212B4642460491CDE902883946D3
S31500001B300096CDF80490204600F060FBD4F8802093
S31500001B400BF4007B4BF44003510143F0410305D5F0
S31500001B5097F8D520120602F080721343009306AA66
S31500001B6002233946204602F0A3F8D4E96E23002169
S31500001B70013B02F108058B42C4F8B851C2E90010D6
S31500001B80C4F8BC3103DCD4F8C03120469847CA44B7
S31500001B900AF10F0A4FEA1A1A52E7D4F8C031204662
S31500001BA09847D4E96E23B5E70080FFFF10B582B0F1
S31500001BB00C46816A009313462246BDF910400194F3
S31500001BC0FFF75CFE002002B010BD00BF10B582B06A
S31500001BD08E460093B0F87030BDF91040C16A1344C8
S31500001BE0B0F86E20019472441BB212B2FFF746FEA3
S31500001BF0002002B010BD00BF2DE9F047B0F96CA07F
S31500001C0082B0BAF1000FBDF9289017DDB9F1000FC7
S31500001C1006460F4690469DB2CAF34F0412DC09EB06
S31500001C20D97C05EB6C052C44CDF804A024B2F16AEE
S31500001C30009443463A463046FFF720FE002002B0A5
S31500001C40BDE8F087A5EB69031B1B1BB20093CDF81B
S31500001C5004A01346C16A3A46FFF710FEDFE700BF4D
S31500001C602DE9F04182B01F46BDF92080B0F96C30F5
S31500001C70B8F1000F04460D4616461FDD002B12DC98
S31500001C80204604F005FDCDF80480A16A009733468E
S31500001C902A462046FFF7F2FD204604F019FD0020F3
S31500001CA002B0BDE8F08108EB43031BB2CDE9007337
S31500001CB01346C16A2A46FFF7E1FDE1E7E0D1002BB2
S31500001CC0DEDDA3F1100202EBD27207EB62020833EB
S31500001CD01BB212B201930092C16A33462A46FFF73D
S31500001CE0CDFDCDE72DE9F04182B01F460093B0F857
S31500001CF07030BDF9208016461344B0F86E20CDF83A
S31500001D0004800A4404460D461BB2C16A12B2FFF7AC
S31500001D10B5FD204604F0BCFCCDF80480A16A00970E
S31500001D2033462A462046FFF7A9FD204604F0D0FC9C
S31500001D30002002B0BDE8F081F8B506464FF4BE704B
S31500001D4004F020F80446002800F0978000254FF0A4
S31500001D50FF376FF07F420223076180F8D53080F8A5
S31500001D600E51C260C0E901624FF07F430422C0F801
S31500001D705431C0E95333D6F8803080F8E920716DCC
S31500001D80C0F8C8204FF4803213F0006FC0F810215D
S31500001D90C0F83021C0F818213A4BC0F828514FF04E
S31500001DA0100208BF4FF480038282C0F8D020AA2216
S31500001DB0C0F82031C0F814210B43C0F8C4204FF4FA
S31500001DC0B052C0F81C2143F401234FF47032C0F81E
S31500001DD0342143F4C0634FF40022C0F82431C0F824
S31500001DE02C21012340F20112C0F84451C0F81630EC
S31500001DF080F8D430C0F8CC50C0E94F55A0F8D620B2
S31500001E00A0F80C31402380F80F51C0F84851C0E9C2
S31500001E103F55C0E94155C4F8D8301C3001F040FFA9
S31500001E2004F1340001F03CFF04F14C0001F038FFEE
S31500001E3004F1640001F034FF04F17C0001F030FF8E
S31500001E4004F1940001F02CFF04F1AC0001F028FF2E
S31500001E500C2384F8E8300C4BC4F8E4303046C4E96F
S31500001E603757C4F83871214605F0E8FAF36923605C
S31500001E7086F8C651F4612046F8BD012586F8C6519C
S31500001E802046F8BD080040200103030338B5036A65
S31500001E908B4205462ED00C4600F11C031A461B68E1
S31500001EA0A34206D0002BF9D1032385F8C631184684
S31500001EB038BD236813606B6AD4F80801A34204BFD7
S31500001EC02B6A6B62EB6AA34204BF2B6AEB62AB6AB6
S31500001ED0A34204BF2B6AAB6220B107F063FC002368
S31500001EE0C4F80831204603F04FFF002385F8C631B9
S31500001EF0184638BD072385F8C631184638BD00BFD9
S31500001F00436A024693F80E01D97540F00100022992
S31500001F1083F80E0116D009D893F8D51021F00C01DC
S31500001F2083F8D510002082F8C60170470329F9D13D
S31500001F3093F8D510002041F00C0183F8D51082F8F3
S31500001F40C601704793F8D51021F0080141F004014D
S31500001F50002083F8D51082F8C601704710B402310C
S31500001F60446A22F07F4244F8212094F80E21034669
S31500001F7042F00102002084F80E2183F8C6015DF8C4
S31500001F80044B7047436A024693F80E0140F0010C79
S31500001F9083F80EC193F812C099748C451CBF40F0AB
S31500001FA0070083F80E01987DC00748BF09064FF069
S31500001FB0000048BFC3F84C1182F8C601704700BF45
S31500001FC010B4446A94F80E31032943F001038446A1
S31500001FD084F80E3127D81A4B53F82110032A22D839
S31500001FE0DFE802F02B04022841F48061D4F82021B6
S31500001FF0D4F82C31C4F81C111343DCF854201343D5
S31500002000D4F83C211343D4F840211343D4F8442197
S3150000201013430B430022C4F824318CF8C621104622
S315000020205DF8044B704710228CF8C62110465DF807
S31500002030044B704741F4A051D8E741F48051D5E7ED
S3150000204060F10A0010B4446A94F80E3143F00103BB
S3150000205084F80E3100232376D0F880301B018446A5
S3150000206023D401293BD099BB012A31D14FF4400139
S31500002070D4F82C21D4F81C31C4F820111343DCF811
S3150000208054201343D4F83C211343D4F8402113437E
S31500002090D4F8442113430B430022C4F824318CF8AE
S315000020A0C62110465DF8044B7047032910D8124B21
S315000020B053F82110032A0BD801A353F822F000BFCE
S315000020C0F320000071200000ED200000E920000050
S315000020D010228CF8C62110465DF8044B7047002A82
S315000020E0F6D14FF48001C3E741F0005141F0800181
S315000020F0BEE741F00051BBE750F10A0010B4426A56
S31500002100034692F8D50061B140F002010024002098
S31500002110C2F8284182F8D51083F8C6015DF8044B51
S3150000212070474FF480311024C2F81011948200F0E9
S31500002130FC014FF4FC44EAE7426A034602294FF0E9
S31500002140000014BF84464FF0030C82F8D61082F8C4
S315000021500FC183F8C6017047034600205A6A82F809
S31500002160D71083F8C6017047F0B5DDE9055440B3D2
S31500002170466A84460120884055EA040796F819E025
S31500002180C0B21BD001EB41014EEA000006EBC10EC6
S31500002190CEE90854AEF83230079BAEF8302043F053
S315000021A001030022CEE90A22CEF81C300EF1280ED9
S315000021B0002370768CF8C6311846F0BD2EEA000072
S315000021C0F6E70220F0BD00BFD0F84C11027C90F873
S315000021D011C0090A6FF07F4301FB023201FB0C3389
S315000021E090F80E1102F07F4203F07F4321F00201C6
S315000021F0C0E9542380F80E11704700BF2DE9F04F57
S3150000220085B01646BDF93C20BDF9387091F8D580E9
S31500002210044690B2A3EB000E18F0010FA7EB0000E6
S315000022201D461FFA8EFB1FFA80FCDDE9109A129BF1
S315000022300FFA8EFE00B26FD000FB00FC0EFB0ECC38
S315000022408644C7F10800B1F914B00190D1F8100125
S3150000225002EBD2710EEB6101CF17BCF1000FA1FBAF
S31500002260008100FB0711B8BF0CF1FF0C03914FEA88
S31500002270EC71C5F108054FEA2C270291002B40F0BE
S31500002280EB80D3174FF078404FF0FF31A4F03CFDC0
S315000022905A460902D31741EA10610002A4F034FD40
S315000022A0029A00FB02F207FB0122A0FB0737D219B4
S315000022B002D50F3342F10002039F1B093F0143EA97
S315000022C0027347EA18774FEA0818B3EB08034FEA98
S315000022D0221262EB0702002A02DAFF3342F1000201
S315000022E01B0A002943EA02620B4604DA40F6FF7332
S315000022F0C01841F10003000B40EA035B05FB0BF538
S31500002300019B6D0048BF0F3503FB0BF329115D00E0
S3150000231000F1A0802D1111E05BEA0C0C75D1C2F121
S315000023200801854B93FBF2FB0BFB01F1490048BF0B
S315000023300F31C2EB42520911D2020D46D4E96E7337
S3150000234006F1040C013B07F10800BAF1000F40F05A
S31500002350AD804A44002BC4F8B801C7E900C2C4F8EE
S31500002360BC3107DCD4F8C031019120469847D4E946
S315000023706E030199013B00F10802C4F8B821002B55
S31500002380416006F105010160C4F8BC3105DCD4F8F2
S31500002390C03120469847D4E96E23013B02F108017B
S315000023A006F11000002BC4F8B81155601060C4F88F
S315000023B0BC3105DCD4F8C03120469847D4E96E1309
S315000023C0013B4FEA4B0501F1080206F10B00002B19
S315000023D0C4F8B8214D600860C4F8BC3105DCD4F8F7
S315000023E0C03120469847D4E96E23013B113602F1ED
S315000023F00801002BC4F8B811C2E90065C4F8BC3165
S3150000240040F3928005B0BDE8F08F00FB00F10EEBC3
S3150000241000030EFB0E11494890FBF2FB02EBD27251
S3150000242003EB620381FB0B21C5F108054FEAEB0BB9
S31500002430D20A42EA41520BFB05F56D00A2EB0332CC
S31500002440C7F1080348BF0F350BFB03F329115D00E5
S315000024507FF560AF0F355DE7D4F880305B017FF51F
S3150000246010AF4FF0784393FBF2F2019B920192FB7F
S31500002470FBF24FEA221B05FB0BF5002D03FB0BF3CA
S31500002480B8BF073582FB0727002BB8BF0733002FDD
S315000024904FEAE5014FEAE30502DA0F3247F100079A
S315000024A0120942EA0772A2EB880247E75242A2EB00
S315000024B00902002BC4F8B801C7E900C2C4F8BC3150
S315000024C007DCD4F8C031019120469847D4E96E0361
S315000024D001994942013B00F10802C4F8B821002BDA
S315000024E0416006F105010160C4F8BC3105DCD4F891
S315000024F0C03120469847D4E96E23013B6D4202F174
S31500002500080106F11000002BC4F8B81155601060E0
S31500002510C4F8BC3105DCD4F8C03120469847D4E96C
S315000025206E13CBEBCB7B4BE7D4F8C031204605B01E
S31500002530BDE8F04F184700BF0000F8FF0000C0FFDD
S31500002540F8B506461420B7690D4603F01BFC0028B3
S3150000255035D00023C360B36E8560044605EB850560
S31500002560D8074FEA850113D5084603F00BFC6060D7
S3150000257010B300232361B36ED90705D4D6F884308F
S31500002580DA0613D49B0707D4002323602046F8BD40
S31500002590304603F027FCEAE7A26802EB8202042138
S315000025A09200384607F002F92061EDE70146384609
S315000025B007F02AF92061E7E7204603F0E5FB00244F
S315000025C0E4E700BFF8B5876919B306460C460BE089
S315000025D003F02AFC2A691AB1D6F884309B070FD477
S315000025E0284603F0D1FBA4B1B36E616813F0010F66
S315000025F0254630462468EBD0084603F0C5FBE9E7DC
S315000026003846042107F0FAF8284603F0BDFB002CF3
S31500002610EAD1F8BD836810B50446186838B1D0E928
S3150000262001230021C1602261E361A06010BD216A1F
S315000026302068FFF785FF10B1A3681860EFE72368ED
S31500002640152283F8C72110BD436970B50546006899
S31500002650EBB15A6886696AB100241A6852F82420D8
S315000026600421304612B107F0C9F86B695A68013483
S31500002670A242F2D8186803F087FB686903F084FB6E
S31500002680286B18B1BDE8704003F07EBB70BD696869
S31500002690FFF798FFF4E700BF2DE9F0474569C269E7
S315000026A082B00446002D3DD0AB69002A35D10168C1
S315000026B0012BD1F8188040F296808768D5F81090E3
S315000026C0BE68D7F804A0F968006906EB86060AEB2F
S315000026D0860309EB860609B10E60FA60834207D9C4
S315000026E01A1A013A22F0030204328021A4F0CEFF26
S315000026F0BB68102703EB83039B00524649464046BE
S31500002700009707F085F8AB692E61013BAB61204667
S3150000271002B0BDE8F047FFF77DBF012B20D002B025
S31500002720BDE8F0870669734931603346816843F82E
S31500002730045FCB6040F2FF33B360013A06F10C034D
S315000027400361C0E90652FFF765FF236893F9C731B5
S31500002750002B78D1A3685B68736002B0BDE8F08790
S31500002760EA690168012AD1F8188041D9EE68A168A2
S315000027707068013AEA610F46002800F0A880FA68FE
S315000027802369002A51D010600022FA60A269184617
S31500002790032A0ED8DFE802F0513D02311A8842F0D2
S315000027A0004242F400021A6040F2FF32DA6010334F
S315000027B02361E369013BE361D1E90123002729692C
S315000027C0A76103EB830310279B004046009707F0A1
S315000027D01FF87368002B9AD0331DEB6072686B6923
S315000027E02A61AB6193E7EA69012ABFD88FD1012B31
S315000027F004BF152381F8C73189E71A6822F07F42A2
S3150000280042F000421A6040F2FF321A61143323612B
S31500002810CFE71A7842F0802242F400021A6040F2B2
S31500002820FF329A600C332361C3E71A46314F1F60AB
S3150000283042F8040F03F10800CA6040F2FF3340F883
S31500002840043B2061B5E72369A269A3F10C0121616C
S31500002850032A11D8DFE802F0162D1E0253F80C2CBD
S3150000286022F07F4240F2FF3042F0004203F10801BD
S3150000287043F80C2C58602161E3690022013BC4E94E
S3150000288006234CE740F2FF31A3F1080243F80C1C83
S315000028902261F1E733F80C2C194642F0004242F46B
S315000028A0000240F2FF3043F80C2C41F8040B216182
S315000028B0E2E713F80C2C42F0802240F2FF3142F49A
S315000028C0000243F80C2C43F8041C2361D4E7AA68E1
S315000028D002EB820292000421404606F067FF706018
S315000028E008B1A1684BE72368012283F8C721236951
S315000028F0A1684BE73280808082690369032A0BD87E
S31500002900DFE802F00F021E101A7842F0802242F42D
S31500002910000243F8082B0361C3690022013BC0E9AA
S31500002920062370471A6822F07F4242F0004243F8BD
S31500002930102B0361C3690022013BC0E90623F0E7BF
S315000029401A8842F0004242F4000243F80C2B03615D
S31500002950C3690022013BC0E90623E2E710B504463D
S315000029600068816E11F0200104D13B2200F5BC7095
S31500002970A4F08CFE62686369C4E902223BB119685F
S31500002980D9600968586919615968C3E90601D2E92D
S3150000299001120023C4E906322161E36210BD00BFC3
S315000029A02DE9F04786690D464FF000082C6814F0B3
S315000029B0803F15D0B4F1803F3ED02204E7B23DD52A
S315000029C0322F00F097806A683946304601F03EFAA9
S315000029D0202F66D0AC6814F0803F05F10805E9D1D8
S315000029E05FFA84FA6A685146304601F02FFABAF166
S315000029F0200FC4F30729C4F307474FEA14644CD0E9
S31500002A00AA684946304601F021FAB9F1200F40D0B4
S31500002A10EA683946304601F019FA202F35D02A697E
S31500002A202146304601F012FA202C2AD01435BDE793
S31500002A30002C42DBFF2F17D00435B7E72302F7D56A
S31500002A40FF2FC4F3072430D06A683946304601F0B8
S31500002A50FDF9202F55D0AA682146304601F0F6F937
S31500002A60202C4AD00C35A1E7C4F30728B8F1020F91
S31500002A7002D0B8F1040F3DD13046043501F0ECF92F
S31500002A8094E7304601F0E8F9D0E7304601F0E4F982
S31500002A90C5E7304601F0E0F9BAE7304601F0DCF967
S31500002AA0AEE7304601F0D8F994E7022C21D1304642
S31500002AB001F0D2F90435A04678E76A68394630460F
S31500002AC001F0C4F9202FC4F30729C4F3074424D026
S31500002AD0AA684946304601F0B9F9B9F1200F18D075
S31500002AE0EA682146304601F0B1F9202C0DD01035A8
S31500002AF05CE7A0464046BDE8F087304601F0ACF9F9
S31500002B00B0E7304601F0A8F9A5E7304601F0A4F990
S31500002B10EDE7304601F0A0F9E2E7304601F09CF916
S31500002B20D6E700BF2DE9F04FD0E96D41876EC56845
S31500002B30A1EB040817F020072A68AE6983B0814626
S31500002B404FEAE80850D1A1422B6946D002F5BC7184
S31500002B50DFF8A4A10190083402F18C0B894605E048
S31500002B600137B84504F1080433D92A6892F9C72118
S31500002B7003EB860E701C62BB54E9022C1AF8021095
S31500002B8061B119F9021019B15BF822106145E7D05D
S31500002B904FF0010109F802104BF822C09A55EA6A73
S31500002BA0CEF804C0013210F00306EA62D8D1EA6911
S31500002BB02B69013A1433012A2B61EA61D0D8AE6140
S31500002BC028460137FFF768FDB8452B6904F108046C
S31500002BD0CBD8DDF80490D9F8B441AE614023C9E9F9
S31500002BE06E4303B0BDE8F08FEB6A4344EB6292F9A3
S31500002BF0C731002BF2D11EB32A69B8F1000FEDD010
S31500002C0004F1080301E008337EB153E9021091553F
S31500002C1002EB8601B8F1010806F1010648601F467D
S31500002C2006F00306EFD1002ED8D1EB691432013B32
S31500002C302A61012B4FF00002EB61AA6157D93C468D
S31500002C405FEA980718BF002605D12AE00136BE4282
S31500002C5004F1200425D02B6893F9C731184603BB2D
S31500002C602268A368216962F3070063F30F20A26953
S31500002C702B6961F3174062F31F60186062685A603F
S31500002C80E2689A606269E969DA60E2691A610139A3
S31500002C90143301292B61E961D8D82846FFF7FCFCDB
S31500002CA0D4E718F00308D9F8B4611ED02A6892F95F
S31500002CB0C72108F1010804EBC8030834AAB9AA69B8
S31500002CC02969B0469C4654E902E301EB8207501C91
S31500002CD05FFA8EF608348E54644500F003027B607A
S31500002CE08DF804E0AA61EED14646344676E72846DA
S31500002CF0FFF7D2FC3C46A3E770F10A0010B5044684
S31500002D00FFF710FFE06882690369032A0ED8DFE83F
S31500002D1002F0302402181A8842F0004240F2FF41C5
S31500002D2042F400021A60D96010330361C369013BA3
S31500002D300022012BC0E9062321D9002084F8C60110
S31500002D4010BD1A6822F07F4240F2FF4142F0004275
S31500002D501A60196114330361E8E71A7842F0802299
S31500002D6040F2FF4142F400021A6099600C3303619D
S31500002D70DCE740F2FF4243F8042B0361D6E7FFF796
S31500002D808BFC002084F8C60110BD00BF10B50446B8
S31500002D90FFF7C8FEE06882690369032A0ED8DFE8F8
S31500002DA002F0302402181A8842F0004240F2FF2155
S31500002DB042F400021A60D96010330361C369013B13
S31500002DC00022012BC0E9062321D9002084F8C60180
S31500002DD010BD1A6822F07F4240F2FF2142F0004205
S31500002DE01A60196114330361E8E71A7842F0802209
S31500002DF040F2FF2142F400021A6099600C3303612D
S31500002E00DCE740F2FF2243F8042B0361D6E7FFF725
S31500002E1043FC002084F8C60110BD00BF2DE9F04137
S31500002E2003689D6E15F0010582B026D1D0E90274C3
S31500002E30BC429E69804612D0236830461BB1E268C8
S31500002E400AB11B691360D4E9012303EB83032169EB
S31500002E5000959B0006F0DCFC2468A742ECD1A36831
S31500002E60D8F81C00626821691B1A03EB830300244F
S31500002E709B003046009406F0CBFC02B0BDE8F08122
S31500002E8003689A6ED20720D42DE9F041D0E9026496
S31500002E90B4429D6907460BD0D4E9012303EB8303B3
S31500002EA09B000421284606F0BBFC2468A642F3D109
S31500002EB0F969A36862685B1A03EB830328469B00E3
S31500002EC0BDE8F041042106F0ABBC704703689A6E7A
S31500002ED0D20726D42DE9F041D0E90264B4429D69B7
S31500002EE0074611D02368042128461BB1E2680AB1BF
S31500002EF01B691360A368226903EB83039B0006F03A
S31500002F008FFC2468A642EDD1F969A36822695B1A91
S31500002F1003EB830328469B00BDE8F041042106F03D
S31500002F207FBC70472DE9F0410C4682B00646086822
S31500002F301746FFF7F7FDA2692369032A0ED8DFE8D3
S31500002F4002F03F3302271A8842F0004242F40002A0
S31500002F501A6040F2FF32DA6010332361E369F26FE0
S31500002F600021013BA161E361002A53D06369002B74
S31500002F7044D05FBB0023E3612046FFF78DFB636906
S31500002F80A268E260002B5ED0186902B0BDE8F0814D
S31500002F901A6822F07F4242F000421A6040F2FF3285
S31500002FA01A6114332361D9E71A7842F0802242F479
S31500002FB000021A6040F2FF329A600C332361CDE7BB
S31500002FC040F2FF3243F8042B2361C7E7206800F084
S31500002FD035FAA268E169D2E901235B1A616903EB5C
S31500002FE083030025096900959B0006F011FC204625
S31500002FF0FFF7B4FC002318466362C6E7D6F88430B0
S315000030009A07204630D4DB0629D5FFF75FFF002F4D
S31500003010B0D0ECE7D4F80880D8F800508DB1A36A98
S3150000302001333C2BA362A1D129462D6825B18846E0
S3150000303029462D68002DFAD12068FFF7C3FAC8F893
S315000030400050A56292E7D6F8843013F0120F02D032
S315000030501069002899D1206902B0BDE8F081FFF718
S315000030600FFF002F86D0C2E7FFF7D8FE002F81D0D2
S31500003070BDE700BFB1F93420086B002A10B50C4635
S3150000308003DD92000021A4F001FB0023E38610BDBE
S31500003090B1F934002DE9F041B1F936500E6B431EFB
S315000030A0AB420C46174609DD4FEA850846F82570FF
S315000030B00135E58606EB0800BDE8F081103000B268
S315000030C0888601223146800002F060FEB4F9342081
S315000030D0206395420646E7DA521B9200002100EB78
S315000030E085004FEA8508A4F0D1FADFE72DE9F84319
S315000030F0D0F87C800860002706460C464F61B8F180
S31500003100000F69D0D8F800304B60202002F03AFE5C
S315000031100546606100285CD0D8F80800800002F0FF
S3150000312031FE81462860002853D0D8E90102D6F83E
S315000031308830686103FB00F06A60A8606AB1012A02
S31500003140C9F8007018BF012305D0296841F823701B
S3150000315001339A42F9D1D5F80090C5F80C9000EBEE
S31500003160800082000421B06906F020FBC9F8000047
S315000031702B681B686BB360686A682B616B69EA61D0
S31500003180AB61E06028B3D0E901311022236100234E
S31500003190A060C4E90631C4E90A33A286402002F0E1
S315000031A0F1FD2063A8B16369DBB11B681D68B4F942
S315000031B03420002A03DD92000021A4F067FA0023E0
S315000031C0E3862A4621463046FFF762FF0120BDE826
S315000031D0F8830020BDE8F8831146FFF7B1F9606077
S315000031E0CFE7D6F88420636812F0120F02D01D696B
S315000031F0002DDCD15D68DAE738B5C36F04462BB124
S3150000320019680B6800221A60FFF7DCF92169656905
S315000032100023C4E9043311B1204603F06FF91DB150
S315000032202946204603F06AF90025D4F8B401E56082
S31500003230C4E90155656302F0A7FDC4E96D55A069AF
S3150000324000F0FCFD84F8C601A56138BD70B50546E1
S315000032504FF4EA7002F096FD0446002851D002238E
S31500003260002683644FF40013C0E90666C0E91366BE
S315000032708566A0F8C6614365FEF75EFD6906C4E98A
S315000032800800C4E90A003ED4702002F07BFD01224A
S31500003290002315F0040F62664FF0CC02C4E90C035C
S315000032A0C4E90F33C4E91B33C4E90433C4E9023368
S315000032B084F8C631A36384F8C43163646367A4F8F1
S315000032C078306360C4F888200CBF052304232A07DE
S315000032D048BF23F004030025E36540F22712294680
S315000032E02566E56704F18C00A4F0D0F9074BC4F815
S315000032F0805019682160082284F8C85184F8C521D5
S315000033001C60204670BD3046C1E700BF1C0FFE1F83
S3150000331038B58569044615B1FFF76EFF0546124BB1
S315000033201A461B68A34204D0002BF9D10225284671
S3150000333038BD2368E16913600023236229B1204662
S31500003340FEF7A4FDE1690029F9D1E06F08B102F0AA
S315000033501BFD206B08B102F017FD002320462363F6
S3150000336002F012FD284638BD1C0FFE1F70B504463C
S3150000337000F03EFDA061002859D03B22002104F553
S31500003380BC70A4F083F9E56F7DB1D4F888102046AF
S31500003390FFF7D6F8D4F88810286006462046FFF7CF
S315000033A0CFF82B6830601A681360D4F8882020465E
S315000033B0114603F067F8D4F88820206111462046AC
S315000033C003F060F823696061DBB1D0B10025C4E980
S315000033D00233606065634FF4007002F0D3FC164B55
S315000033E084F8C9514022C4E96D00C4E96F23A0697D
S315000033F00A2106F015F948B9002384F8C6311846A3
S3150000340070BD012384F8C631184670BDFF23A0693C
S315000034102A460A2106F0ECF8A0692A460A2106F097
S31500003420F3F8FF2804BF012384F8C931E4E7052334
S3150000343084F8C631184670BD252B00008069704798
S31500003440B0B338B5436E8B420D4604460DD0082BFB
S315000034500FD008291DD003F051F9626A92F80E3197
S31500003460656643F0010382F80E31002084F8C60138
S3150000347038BD426A616692F80E3143F0010382F864
S315000034800E3103F025F9082D0BD0002084F8C60173
S3150000349038BD426A616692F80E3143F0010382F844
S315000034A00E31204603F0F4F8002084F8C60138BD3A
S315000034B00220704703460020A3F86C1083F8C6016B
S315000034C0704700BF40B110B5044600F0CFFC0023A2
S315000034D084F8C631184610BD0220704710B5C4687E
S315000034E0FFF720FB636822695B689A4201D00120DE
S315000034F010BD60690028FBD0026803691068C01A15
S31500003500B0FA80F0400910BD2DE9F84F1D460C9B1E
S31500003510DDF82890D3F8104117460B9A064612F0AC
S31500003520010F09FB09F008BFA34605FB050018BFFC
S315000035304FF0000B12F0020F08BFA246884618BFD4
S315000035404FF0000A02F09AFB0D9B240194FBF0F465
S3150000355003B11C60C9F1000004FB00F005FB04F494
S3150000356024114544001104FB05F5B9440C9B00FBEE
S315000035701955C8F100080AEB2512D3F81011B261EB
S3150000358000FB08F204FB172200FB07F704FB087791
S315000035904908C6E901043461306201EB22110BEBE4
S315000035A02713404264423160F3607061F461BDE804
S315000035B0F88F00BF2DE9F04F83B08046DDF83090DC
S315000035C00D9F019109FB09F003FB03000E9D1E46AA
S315000035D0924602F053FB6FEA070B87F002074FEAA9
S315000035E00B4BC7F340074FF48014019994FBF0F49A
S315000035F00BF4803B3F0405B12C60C9F1000504FBC8
S3150000360005F52D1106FB04F40E444942241105FB71
S3150000361001F3D14404FB1A3304FB06F605FB0AFA50
S3150000362005FB196604FB01AA1B11C8E9015407EB47
S315000036302617C8F81040C8F820500BEB2A1203F5DD
S3150000364000436D426442C8F81870C8F80030C8F8E4
S315000036500C20C8F81450C8F81C4003B0BDE8F08F21
S315000036602DE9F04FDDE90945EE4385F0020C3604FD
S31500003670CCF3400C002BDDF82C8006F480364FEAA4
S315000036800C4C03EB010704EB020A4ADB002C23DB9C
S31500003690C2F10009A3424FEA093966DD5D422404FE
S315000036A094FBF5F402FB04FE0AFB04FA4FEA2E1E15
S315000036B04FEA2A1A01FB04F5CAEB0737AEEB013EC7
S315000036C0A9EB25156242B8F1000F01D0C8F8003009
S315000036D075494FF4803363E0C4F100094D429945C2
S315000036E04FEA053BC0F289801B0493FBF9F301FB0B
S315000036F003FE4FEA2E1E03FB07F74FEA0A3A02FBC8
S3150000370003F5CAEB2717CEEB023EABEB2515594264
S31500003710B8F1000F01D0C8F80090634A4FF4803426
S315000037203EE0002CC0F283805D42A5424FEA01399B
S3150000373045DD24043F0394FBF3F401FB04F502FB8F
S3150000374004FE2D117F420AFB04FAC5EB0235A7EBF6
S315000037502A1709EB2E1E6242B8F1000F01D0C8F8F5
S315000037600030514B4FF480311AE01B0493FBF4F305
S3150000377003FB02F2121103FB07F74FEA0A3AC2EB08
S31500003780013503FB01F1A9EB211E0AEB271759426C
S31500003790B8F1000F2DD0C8F80040434C4FF48032EA
S315000037A07644674405F50045C0E90527C0E900549D
S315000037B0C0E90714C66083600361BDE8F08F1B048F
S315000037C093FBF4F301FB03FE02FB03F54FEA2E1E07
S315000037D003FB07F74FEA0A3A52420AEB2717A9EB0F
S315000037E02515CEEB023E5942B8F1000F01D0C8F8BC
S315000037F000402D4C4FF48032D2E75D42240494FB06
S31500003800F5F401FB04F50AFB04FA514202FB04FE3F
S315000038102D114FEA2A1ACAEB0737C5EB01350BEB18
S315000038202E1E6242B8F1000F7FF450AF50E7A3425C
S315000038304FEA02391BDA3F0324047F4294FBF3F478
S315000038404FEA013E04FB02F20AFB04FA01FB04F50F
S315000038500EEB221EA7EB2A17A9EB25156242B8F13B
S31500003860000F3FF47EAF5B42C8F8003079E7644250
S315000038701B0493FBF4F302FB03F501FB03FE4A4230
S315000038802D1103FB07F74FEA0A3ACAEB2717C5EBD8
S315000038900235A9EB2E1E5942B8F1000F3FF43DAF99
S315000038A0C8F8004039E700BF0000FFFF10B4002B46
S315000038B0019C2BDB002C15DBA34237DD240412030D
S315000038C094FBF3F404FB01F16342C2EB21114FF4C4
S315000038D08034029A02B101318460C0E900135DF8B8
S315000038E0044B7047C4F1000C194422449C4512B2A3
S315000038F009B2E3DB1B04090393FBF4F303FB02F2B7
S315000039005C42C1EB22114FF48033E2E7002C21DB4D
S31500003910C3F1000CA44513DD240494FBF3F303FB6D
S3150000392001F109110F4CC1EB0231D2E71B0493FBE5
S31500003930F4F402FB04F31B11C3EB0131094BC8E796
S315000039401B0493FBF4F404FB02F21211054BC2EBC9
S315000039500131BEE719442244A34212B209B2DBDDAB
S31500003960C8E700BF0000FFFF70B5DDE90465002B66
S31500003970D5F810413ADB002E13DBB3424DDD4FEA9A
S31500003980064C9CFBF3F34FEA023C01FB03F283FB7C
S315000039900413090C41EA0341CCEB221249422346A7
S315000039A017E0194406EB020C0AB2714299420FFA6B
S315000039B08CFC51DB1B0493FBF6F30CFB03FC83FB33
S315000039C004311B0C43EA01431203C2EB2C125B4287
S315000039D0214604EBD474B5F914504160120192FBF0
S315000039E0F5F202EB64020260836070BD002E44DBD8
S315000039F0C3F1000EB645C4F1000C1EDD360496FB7D
S31500003A00F3F606FB01F10911C1EB023286FB0461F4
S31500003A10360C634646EA0141DBE71B0493FBF6F3EB
S31500003A2002FB03FC4FEA2C1CCCEB013283FB043176
S31500003A301B0C43EA01436142CBE71B0493FBF6F3FD
S31500003A4003FB02F283FB043612111B0CC2EB01329C
S31500003A5043EA06436146BCE7310491FBF3F101FBFF
S31500003A6002F281FB0413090C41EA03414FEA0C3CC4
S31500003A70CCEB221249422346ABE706EB020C194473
S31500003A80B3420FFA8CFC0AB294DC310491FBF3F1D9
S31500003A9001FB02F281FB04131211090C41EA0341F6
S31500003AA0C2EB0C32634294E710B4019C002C03DA9B
S31500003AB01944224409B212B204FB01F103FB1212AB
S31500003AC002996442120224031B0301B1013202F57A
S31500003AD00042C0E9002483605DF8044B704700BFD4
S31500003AE02DE9F041069D002D06460C4690461F46E0
S31500003AF004DA1C44A84424B20FFA88F805FB05F042
S31500003B0007FB070002F0BAF86D424FF48013B3FBCF
S31500003B10F0F000FB05F5644200FB07F72D113F119D
S31500003B2005FB04F4079B07FB1842121103B101328F
S31500003B3002F50042C6E90025B760BDE8F08100BF86
S31500003B408268036810B401FB023354428460036048
S31500003B505DF8044B704700BFB1F914C0ACEB020C22
S31500003B60B1F916202DE9F04104464868069ED21A9E
S31500003B708B6800FB0CFC03FB02C30A681B110D4695
S31500003B80110748BF0133D70648BFA3F58033510755
S31500003B9049BFA3F50043012740F2012703F1FF3394
S31500003BA0520607FA06F706D54FEA560C4FF40032CE
S31500003BB002FA0CF21743D4E96E12C3F1000E079B0A
S31500003BC0013A06F1040801F1080C53BB002AC4F8B7
S31500003BD0B8C1C1E9008EC4F8BC2159DD013A0CF127
S31500003BE0080306F10A01002AC4F8B831CCF804002B
S31500003BF0CCF80010C4F8BC2143DDA9681036013AA0
S31500003C0003F10800002AC4F8B801C3E90061C4F84A
S31500003C10BC2103DCD4F8C031204698473846BDE8BD
S31500003C20F0814FEA8E13002AC4F8B8C1C1E90083B7
S31500003C30C4F8BC211DDD013A80010CF1080306F130
S31500003C400A01002AC4F8B831CCF80400CCF80010F8
S31500003C50C4F8BC2103DDA96810368901CFE7D4F882
S31500003C60C03120469847A968D4E96E3210368901DA
S31500003C70C5E72046D4F8C0319847D4E96EC26868D3
S31500003C80D9E7D4F8C03120469847D4E96E32B4E774
S31500003C902046D4F8C0319847D4E96EC268689DE7DB
S31500003CA00023C0E90133C0E9033303604361704771
S31500003CB02DE9F0411D464B7E82B00C46D907089E81
S31500003CC0074690460DD5E269D20705D5052D67D979
S31500003CD0304602B0BDE8F081042DF9D826F400067E
S31500003CE002359A071AD5636BDB074FD5052DEFD83A
S31500003CF006F0807300950193B8F90230B8F90020F8
S31500003D0004F134013846FFF727FF636B0643580674
S31500003D1054BF26F4000626F440060135A37D990714
S31500003D2019D5627E520716D5E26CD00753D5052DFC
S31500003D30CED806F0807300950193B8F90230B8F931
S31500003D40002004F14C013846FFF706FFA37D3043FF
S31500003D5020F4000601355907BAD5637E1A07B7D590
S31500003D60636EDB073ED5052DB2D8009504F16401DC
S31500003D7006F08074B8F90230B8F90020019438468C
S31500003D80FFF7EAFE304320F40006A1E7042D9FD892
S31500003D90A37D990726F4000605F10205DBD5C0E7E9
S31500003DA006F0807300950193B8F90230B8F9002047
S31500003DB004F11C01FFF7D0FEE3695906637E40EA71
S31500003DC0060054BF20F4000620F440069A0705F1C9
S31500003DD00105A3D587E7042D3FF67AAF26F4000642
S31500003DE00235B8E7042D98BF26F4000670E700BF39
S31500003DF038B50546084605F0B5FB0446B8B10122BC
S31500003E00114605F001FC420144BF012385F8C83183
S31500003E108303C5F880000CD5EB6D312201212046C5
S31500003E2005F0E6FB204605F0EDFCC5F884002046CB
S31500003E3038BDAB6E43F00103AB66EDE708B505F0A0
S31500003E40C3FB013818BF0120400008BD13460A46CF
S31500003E50012105F0CDBB00BF10B5044600220121AB
S31500003E60204605F0D1FBC307F8D410BD38B5836EE4
S31500003E7084690546D8070AD501210022204605F0A7
S31500003E80C3FB8107F8D138BDAB6E9A0707D5002270
S31500003E900121204605F0B8FB0307F5D4F3E7C82255
S31500003EA00421204605F02AFCF1E700BF70B50B6B34
S31500003EB04C68816E8669C90705460CD41A684AB1F2
S31500003EC090F9C91191B130463222BDE87040012106
S31500003ED005F08EBB70BD5AB9002CFBD06168284630
S31500003EE0FEF75EFD0328F5D02468F5E71346EAE7FA
S31500003EF0BDE870401968FEF753BD00BF2DE9F04FCD
S31500003F00A9B00D46BDF9C8C0BDF9CC10BDF9D08029
S31500003F10ACEB0209A1EB030A044659EA0A0000F0D9
S31500003F202A8295F8D67008F10F004610012F0C96DC
S31500003F30089600F03682359810F40050099040F04B
S31500003F401E82099813901FFA8CF0B9F1000FBDF884
S31500003F5020B00E9092B240F345820F305844A2EB47
S31500003F600B0620F00F0026F00F0600B236B289B21B
S31500003F70BAF1000FADF86860ADF86C000A919EB218
S31500003F8040F3238201F10F035B44A6EB0B0123F000
S31500003F900F0321F00F011BB209B2ADF86A102046DB
S31500003FA01AA90792ADF86E3004F06AFC002800F0FA
S31500003FB0E281BDF86830079AD21A13B20B93BDF8A6
S31500003FC06A301593F31A1BB2B8F12F0F0D9302DC6A
S31500003FD0022F08BF01273599359A95F8D53001F09B
S31500003FE001010F91359902F0030201F00201032A43
S31500003FF003F00303109100F0C282032B00F0288423
S31500004000359B0D9A0B99CDE900A31CAB184614936A
S31500004010B8F11F0F17AB02934B4640F3F081FFF741
S31500004020C9FA1C9B03EBC8231C93012F4FEA0833E4
S31500004030129300F0E3822946204602F0ADFBD5F844
S3150000404028311193BAF1000F40F351824FEAD97328
S315000040500793AB7D119ADFF89C9802F4185213F07F
S31500004060060F42EA090915D0099ACDF80090022FE9
S3150000407014BF02230523002A18BF05231AAA2946BE
S315000040802046FFF715FE10F4000F079B08BF00231C
S315000040908146079395F8D42093072FD50B9BA5F857
S315000040A090300D9BA5F8923095F80E31D5F8D000DA
S315000040B043F0080385F80E31219B212112F0080FE9
S315000040C04FEA0313E96793FBF0F3209900F0B482FB
S315000040D049424FEA011C19469CFBF0F3C5E920133F
S315000040E0D5F8CC100B03C5F88830530706D5179BB7
S315000040F01B0193FBF0F30B44C5F8CC30079B1AAABF
S315000041002946204601F0B2FE079B1AAA29462046F8
S3150000411003F0D4FC022F00F0F3810F9B002B40F03C
S315000041203382109B002B40F08B821E469846359BAF
S3150000413013F4C05F15D01A0505D51FAB93E8070029
S31500004140369B83E80700359BDB0405D522AA07CA00
S31500004150369B0C3383E807001AAB03CB379B1860FA
S315000041605960079B002B40F03582DDF81CA0099BA7
S31500004170B3B1139B03F5803B359B980506D5389B59
S31500004180D3E9002352EA030140F01984359B59050F
S3150000419006D5389BD3E9022352EA030140F0AC83EB
S315000041A0D4E96E031C9A013B00F10801C4F8B8116A
S315000041B0002B42604FF004020260C4F8BC3105DCFB
S315000041C0D4F8C03120469847D4E96E131D98013BB8
S315000041D001F10802C4F8B821002B48604FF00A002C
S315000041E00860C4F8BC3105DCD4F8C03120469847D5
S315000041F0D4E96E231E98013B02F10801C4F8B811F8
S31500004200002B50604FF010001060C4F8BC3105DC84
S31500004210D4F8C03120469847D4E96E131F9801F1AF
S315000042200802C4F8B821013B4860002E00F0EA807D
S315000042300820002B0860C4F8BC3105DCD4F8C03176
S3150000424020469847D4E96E232098013B02F10801E5
S31500004250C4F8B811002B50604FF00E001060C4F87F
S31500004260BC3105DCD4F8C03120469847D4E96E133A
S315000042702198013B01F10802C4F8B821002B4860DF
S315000042804FF014000860C4F8BC3105DCD4F8C03126
S3150000429020469847D4E96E232298013B02F1080193
S315000042A0C4F8B811002B50604FF005001060C4F838
S315000042B0BC3105DCD4F8C03120469847D4E96E13EA
S315000042C02398013B01F10802C4F8B821002B48608D
S315000042D04FF00B000860C4F8BC3105DCD4F8C031DF
S315000042E020469847D4E96E232498013B02F1080141
S315000042F0C4F8B811002B50604FF011001060C4F8DC
S31500004300BC3140F3EA801298013B01F10802C4F87F
S31500004310B821002B48604FF016000860C4F8BC3185
S3150000432005DCD4F8C03120469847D4E96E2302F163
S315000043300801C4F8B811013B00218B42C2F8049071
S315000043401160C4F8BC3103DCD4F8C031204698476C
S315000043500C9B089E1E440F36079B36111AA932463F
S315000043602046002B00F0C08002F06CFD022F00F00A
S315000043706D81012000E0002029B0BDE8F08F95F89E
S31500004380D70004284FEA680600F04D81B5F9D80039
S31500004390304400EB80060003139046F38F0008902C
S315000043A0D1E5359800F0030003283FF4C4AD06EBD1
S315000043B04600C6EBC00040F30F100890359810F485
S315000043C0005009903FF4BDADD9E70A9906F10F03F5
S315000043D05B44A1EB0B0123F00F0321F00F011BB28D
S315000043E009B2DAE50E9E02F10F005844A6EB0B0661
S315000043F020F00F0026F00F0600B236B2B7E5FFF741
S315000044002FF90EE60520002B0860C4F8BC3105DC48
S31500004410D4F8C03120469847D4E96E232098013B52
S3150000442002F10801C4F8B811002B50604FF00B00E0
S315000044301060C4F8BC3105DCD4F8C031204698477A
S31500004440D4E96E132198013B01F10802C4F8B821A2
S31500004450002B48604FF011000860C4F8BC3105DC41
S31500004460D4F8C03120469847D4E96E232298013B00
S3150000447002F10801C4F8B811002B50604FF0080093
S315000044801060C4F8BC3105DCD4F8C031204698472A
S31500004490D4E96E132398013B01F10802C4F8B82150
S315000044A0002B48604FF00E000860C4F8BC3105DCF4
S315000044B0D4F8C03120469847D4E96E232498013BAE
S315000044C002F10801C4F8B811002B50604FF0140037
S315000044D01060C4F8BC313FF716AFD4F8C03120469F
S315000044E09847D4E96E130EE702F01EFC3EE700F093
S315000044F0ED81B9F1000FD4BF002301230793A8E58E
S3150000450008F110080F9B4FEA68029046002B00F056
S315000045105E810E99BDF86830CB1A07991BB2002947
S3150000452040F0C381BDF86A100A98411A09B203EB3C
S31500004530420000284FEA42029C464FF000071ADD6F
S3150000454001268818002813DDBDF96C00BDF968E066
S31500004550ACEB020CA0EB0E00844509DABDF96E0047
S31500004560BDF96AC08A1AA0EB0C008242C0F206832B
S315000045700F9BD3B156B149F40059012609E0032B2C
S3150000458000F0778200273BE54FF0000849F4806988
S315000045900026359B980500F12E811F9BBAF1000F6E
S315000045A003F50043C8BF01331F93109B002B3FF454
S315000045B0BEAD002E46D049F48069359B590500F101
S315000045C02C81229BBAF1000F03F50043D8BF0133BB
S315000045D02293ACE5BDF96A20BDF96E3014989B1A9A
S315000045E04FEA231A5146FFF7ABFA51461FA8FFF7C9
S315000045F0A7FA514622A8FFF7A3FAB8E50F9B33B9ED
S31500004600129A1F9BA2F5803203EB62031F93109B45
S31500004610002B7FF410AD129A229BA2F5803203EB99
S315000046206203229307E5089800EB800040F38F00B1
S3150000463008903003139086E4090191FBF0F14DE5F3
S31500004640DDF83C8049F400590026B6E70E9F1FFAB4
S3150000465088F3002207F10F001844114660F30F019A
S31500004660F81A60F30F020A980F30184460F31F41DE
S315000046700A98C31A21F00F1163F31F4222F00F129A
S315000046801991204618A9189204F0FAF800283FF468
S3150000469070AE0A98BDF86230CDF80480C31A1BB21A
S315000046A00093BDF860304FF00008FB1A1BB242467B
S315000046B029462046CDE90388CDF80880FDF79EFD02
S315000046C0119B8B4F03F4007318AA294620461F43FB
S315000046D0434601F0CBFB434618AA2946204603F081
S315000046E0EDF9AB7D13F0060F40F03582BDF9683069
S315000046F0BDF96000BDF96210079AC01ABDF96A30AB
S31500004700C91A0011249B09111AB15B42A1EB0A01D7
S315000047102493229A239D524200FB152203FB112269
S31500004720D4E96E1302F10112013B01F10800C4F84D
S31500004730B801002B4A604FF006020A60C4F8BC318B
S3150000474006DCD4F8C03120469847D4E96E03239D91
S31500004750013B6D4200F108010C22002BC4F8B81190
S3150000476045600260C4F8BC3105DCD4F8C03120468F
S315000047709847D4E96E13249A013B504201F108028E
S31500004780C4F8B821002B48604FF012000860C4F846
S31500004790BC3105DCD4F8C03120469847D4E96E23F5
S315000047A002F10801C4F8B811013B00218B425760A1
S315000047B01160C4F8BC3103DCD4F8C03120469847F8
S315000047C046F30B1218A9204602F0AEFAD1E5079B74
S315000047D0002B70D10D99109E002E7BD10B9800EB0B
S315000047E04203002B49F400594FEA4202844640F343
S315000047F0AF810346A5E6389B0D9A5B6800930023BC
S315000048000193389B0B991B681FA84FEA4B0BFFF7C8
S315000048104BF90FFA8BF30893C7E60A9BBDF86A209B
S31500004820BDF868109A1A0E9B591A389BDB685B42D2
S315000048300093389B9B6801205B42019012B209B23B
S3150000484022A8FFF731F9089B5B001BB208936EE4C0
S31500004850359B0D9A0B990295CDE900A31CAB184622
S31500004860149317AB03934B46FEF74EFED5F8103163
S315000048701C9908FB03F201EB6211012F1C914FEA10
S3150000488022114FEA621209D10F9810B91F981044ED
S315000048901F90109810B92298104422905B08A3F537
S315000048A080330B441293FFF7C6BBBDF86E100A980F
S315000048B0091A09B23BE6BDF86E30159919440B4644
S315000048C0BDF86A105B1A9B1B19B284E7CDF81CA0D1
S315000048D0FFF7BFBB0B9800EB4203002B4FEA4202E7
S315000048E084464FF000077FF7ADAE0B9B3E4628E6A9
S315000048F0450840001380C0000A990092BDF86A205E
S315000049000E988A1ABDF86810411A119800F4805062
S3150000491040EA090040F0080900205B42019012B20B
S3150000492009B225A8FFF7DCF8079B002B40F0218190
S31500004930D4E96E03359ADDF894C0120403F1FF330F
S3150000494000F1080140F1AE800CEB0B02C4F8B8117F
S31500004950002B42604FF007020260C4F8BC3105DC50
S31500004960D4F8C03120469847D4E96E132698013B07
S3150000497001F10802C4F8B821002B48604FF00D0081
S315000049800860C4F8BC3105DCD4F8C031204698472D
S31500004990D4E96E232799013B02F10800C4F8B80157
S315000049A0002B51604FF013011160C4F8BC313FF782
S315000049B0F9ABD4F8C03120469847FFF7F1BB119800
S315000049C0009200F4006040EA090040F0040900206B
S315000049D05B4201900D9A0B9925A8FFF781F8079B7A
S315000049E0002B40F0C180D4E96E033599DDF894C000
S315000049F0490403F1FF3300F108027ED40CEB0B01EE
S31500004A00C4F8B821002B41604FF006010160C4F8DC
S31500004A10BC3105DCD4F8C03120469847D4E96E2372
S31500004A202698013B02F10801C4F8B811002B50602A
S31500004A304FF00C001060C4F8BC3105DCD4F8C0316E
S31500004A4020469847D4E96E13279A013B01F10800E6
S31500004A50C4F8B801002B4A604FF012020A60C4F88D
S31500004A60BC313FF793ABD4F8C03120469847FFF7E7
S31500004A708DBB359B0D9A0B990295CDE900A31CAB16
S31500004A801846149317AB03934B46FEF73DFDD5F836
S31500004A9010311C9A08FB03F102EB611200271C92ED
S31500004AA00911FBE6ABEB0C02C4F8B811002B42600F
S31500004AB04FF007020260C4F8BC3105DCD4F8C031FF
S31500004AC020469847D4E96E13269A013B504201F1DD
S31500004AD00802C4F8B821002B48604FF00D000860AA
S31500004AE0C4F8BC3105DCD4F8C03120469847D4E977
S31500004AF06E232799013B49424EE7ABEB0C01C4F804
S31500004B00B821002B41604FF006010160C4F8BC31AA
S31500004B1005DCD4F8C03120469847D4E96E2326999F
S31500004B20013B484202F10801C4F8B811002B50605D
S31500004B304FF00C001060C4F8BC3105DCD4F8C0316D
S31500004B4020469847D4E96E13279A013B52427DE7E7
S31500004B50109EFFF7ECBA00972946032318AA2046B1
S31500004B60FFF7A6F80746C1E525A85146FEF7E8FF78
S31500004B7039E725A85146FEF7E3FFD9E60022CDE93D
S31500004B800018CDE903220292294602222046FDF7AB
S31500004B9035FB119B03F4006343EA090343F48019D0
S31500004BA049F08409E4E400BF2DE9F04788B01FFA14
S31500004BB082F8BDF940501035C5F34F0E9EB24FF046
S31500004BC0000C08F10F037344624663F30F02A8EB6F
S31500004BD00E0363F30F0C06F10F037344A6EB0E0EE0
S31500004BE063F31F426EF31F4C0F462CF00F1322F097
S31500004BF00F1206A904460693079203F041FE10B968
S31500004C0008B0BDE8F087BDF81A300022CDE90322CE
S31500004C10F61A6D10BDF81830019536B2029200965C
S31500004C20D7F82861A8EB03031BB239462046FDF7E7
S31500004C30E5FA06F4007343F4800343F0410300935E
S31500004C4006AA022339462046FFF732F8119B0F3594
S31500004C5006462D09002B61D0139BBDF91A20B3F926
S31500004C600090BDF91830A9EB0309139BB3F9023084
S31500004C709B1A4FEA231A119BDA074FEA29197DD4AA
S31500004C804FF00208119B9B074AD5129BDB68C3F5C0
S31500004C908032129B19695B6909FB012203FB0A2218
S31500004CA0D4E96EC30132013B0CF10800C4F8B80127
S31500004CB0002BCCF804204FF00702CCF80020C4F8F3
S31500004CC0BC3140F3BE804942013B00F10802C4F802
S31500004CD0B821002B41604FF00D010160C4F8BC31D2
S31500004CE040F3938012994969013B494202F1080059
S31500004CF0C4F8B801002B51604FF013011160C4F8DD
S31500004D00BC317DDDB8F1030F46F4805646F0080647
S31500004D100CBF4FF004084FF0020801E04FF0020804
S31500004D200096434606AA39462046FEF7C1FFD4E957
S31500004D306E230021013B02F108068B42C4F8B861DC
S31500004D40C2E90010C4F8BC3103DCD4F8C0312046F7
S31500004D50984706AA39462046002301F087F8002323
S31500004D60394606AA204602F0A9FE20462A4606A98A
S31500004D7001F0DAFF012008B0BDE8F087129B1B683E
S31500004D80C3F58032129B59689B6809FB012203FB1D
S31500004D900A22D4E96EC30132013B0CF10800C4F8C3
S31500004DA0B801002BCCF804204FF00602CCF8002006
S31500004DB0C4F8BC313CDD4A42013B00F10801C4F8AD
S31500004DC0B811002B42604FF00C020260C4F8BC31EF
S31500004DD027DD129A9268013B524201F10800C4F89D
S31500004DE0B801002B4A604FF012020A60C4F8BC31C9
S31500004DF012DD46F4006646F004064FF0030841E76C
S31500004E00D4F8C031204698477CE7D4F8C031204614
S31500004E109847D4E96E2365E7D4F8C0312046984711
S31500004E20E7E7D4F8C03120469847D4E96E13D0E7B7
S31500004E30D4F8C03120469847129B5968D4E96E03CE
S31500004E40B9E7D4F8C03120469847129B1969D4E9CE
S31500004E506E0338E72DE9F04FA9B00446BDF9CC90B2
S31500004E60BDF9C8500793A9EB0300BDF9D0301095E2
S31500004E708A460A932946BDF9D4300993AD1A55EAF4
S31500004E800003CDE911190D9203D1002029B0BDE828
S31500004E90F08F00FB00F09AF8D630089305FB05006A
S31500004EA000F0ECFE079A0A99A2EB09064FF0807310
S31500004EB093FBF0F303FB05F503FB06F62812361207
S31500004EC000FB01F706FB01F80D9D0999139000FB05
S31500004ED001F24FEA684C05EB6840A5EB6848079D70
S31500004EE0159353144FEA674E149305EB6743A5EBEE
S31500004EF06747109D0E9006FB01FB05EB6B400F907C
S31500004F00A5EB6B404FEA6B410C9009EB624BA9EBAA
S31500004F106240089A0B90022A00F0F282369A02F05A
S31500004F200302032A00F07483089A012A19D1369ADB
S31500004F30D50707D40E9AA2EB0E020E92A8EB0E0826
S31500004F4063446744369A90070BD40F9A1498024428
S31500004F500F920C9A02440C920B9A521AABEB010B6D
S31500004F600B92DDE90E129142A8BF11460C9A4245FA
S31500004F70A8BF42469142ADBF22F00F0221F00F01B9
S31500004F800AB212B2ADF86820DDE90E129142B8BF3E
S31500004F9011460C9A4245B8BF4246914240F35082B0
S31500004FA00F3121F00F010AB2ADF86C200B9A5B4568
S31500004FB01946A8BF5946BA42A8BF3A469142ADBF64
S31500004FC022F00F0221F00F010AB212B2ADF86A20E8
S31500004FD00B9A5B451946B8BF5946BA42B8BF3A461E
S31500004FE0914240F328820F3121F00F010AB21AA92B
S31500004FF020461493ADF86E2003F042FC00283FF4DF
S3150000500044AF139A1D92DDE90E23D31ABDF86A0048
S315000050100E93149BBDF868C00D9D2196A3EB0B0162
S315000050201B1A0FFA83FE079B0F911B1A0FFA83FBBD
S31500005030109BA2EB0C02A3EB0C0311B2139AA9EB83
S3150000504000001BB200B202FB03F306FB10331B1178
S3150000505003F50043A5EB0C0C0FFA8CF51F9306FB2A
S315000050600BF302FB15330C9816951B1103F58033D1
S31500005070A0EB08001C939AF8D53013900B9803F018
S31500005080030376425542C01B032B1E962095BEB2E3
S315000050901FFA88F5149000F0D9820F9B0093002325
S315000050A0724622A801930E9B1790FEF7FFFBBDF8F0
S315000050B06A20BDF8681000230193B21A149B00936E
S315000050C0691A139B25A812B209B21390FEF7EEFBDC
S315000050D0229B03F500432293259B03F5004325936A
S315000050E0369B03F00105089B012B00F09482514684
S315000050F0204601F051FB089BDAF82861022B07D104
S315000051000DB946F40076369B9A0758BF46F480667A
S315000051109AF8D42093072DD5169BAAF890309AF8C2
S315000051200E31DAF8D000AAF892B043F008038AF8F4
S315000051300E311E9B212112F0080F4FEA0313CAF805
S315000051407C1093FBF0F31D9900F0C58249420901DA
S3150000515091FBF0FCDAF8CC10CAE9203C0B03CAF844
S315000051608830530706D5159B1B0193FBF0F30B44C0
S31500005170CAF8CC300B9B9F4240F367810C9BA8EB8F
S3150000518003030E930E9B002BC0F2698100231AAA1B
S315000051905146204600F06AFE1AAA002351462046D0
S315000051A002F08CFC079B9945A8BF079ABDF96A30A7
S315000051B04FF00008B4BFA9EB0303D31ADDE90912C7
S315000051C08A42B8BF0A4642F30B12D3180B939AF8D9
S315000051D0163006F4F05747F4400713F0060F47F071
S315000051E00F0740F05381002D00F06081099B43F3C7
S315000051F04F030F9300230C9301230E93B8F1000F76
S3150000520040F06681C346D4E96E130020013B01F1EC
S3150000521008028342C4F8B8214F600860C4F8BC3164
S3150000522005DCD4F8C03120469847D4E96E239AF8B5
S31500005230D51001F00301032900F0BE811C99013B42
S3150000524002F10800C4F8B801002B51604FF00401C8
S315000052501160C4F8BC3105DCD4F8C031204698474B
S31500005260D4E96E031D9A013B00F10801C4F8B81198
S31500005270002B42604FF00A020260C4F8BC3105DC24
S31500005280D4F8C03120469847D4E96E131E98013BE6
S3150000529001F10802C4F8B821002B48604FF0100055
S315000052A00860C4F8BC3105DCD4F8C0312046984704
S315000052B0D4E96E231F98013B02F10801C4F8B81126
S315000052C0002B50604FF005001060C4F8BC3105DCBF
S315000052D0D4F8C03120469847D4E96E132098013B94
S315000052E001F10802C4F8B821002B48604FF00B000A
S315000052F00860C4F8BC3105DCD4F8C03120469847B4
S31500005300D4E96E232198013B02F10801C4F8B811D3
S31500005310002B50604FF011001060C4F8BC3105DC62
S31500005320D4F8C03120469847D4E96E132298013B41
S3150000533001F10802C4F8B821002B48604FF00600BE
S315000053400860C4F8BC3105DCD4F8C0312046984763
S31500005350D4E96E232398013B02F10801C4F8B81181
S31500005360002B50604FF00C001060C4F8BC3105DC17
S31500005370D4F8C03120469847D4E96E132498013BEF
S3150000538001F10802C4F8B821002B48604FF0120062
S315000053900860C4F8BC3105DCD4F8C0312046984713
S315000053A0D4E96E232598013B02F10801C4F8B8112F
S315000053B0002B50604FF007001060C4F8BC3105DCCC
S315000053C0D4F8C03120469847D4E96E132698013B9D
S315000053D001F10802C4F8B821002B48604FF00D0017
S315000053E00860C4F8BC3105DCD4F8C03120469847C3
S315000053F0D4E96E232799013B02F10800C4F8B801ED
S31500005400002B51604FF013011160C4F8BC3103DC6E
S31500005410D4F8C031204698470B9A1AA92046B8F10D
S31500005420000F00F0818001F00DFD089B022B00F0BB
S31500005430818001202AE50F3222F00F0212B2D6E552
S315000054400F3222F00F0212B2AEE50F9B002B3FF790
S3150000545099AE3FF49BAE0E9B002B7FF797AE0123D0
S315000054601AAA5146204600F001FD01231AAA514608
S31500005470204602F023FB079ABDF96E309145B4BF72
S315000054809B1AA3EB09034FF0010897E60097042344
S315000054901AAA51462046FEF70BFC10F4000F0746E9
S315000054A008BF4FF00008002D7FF4A0AE369B13F026
S315000054B0020300F0F3800A9B0C955B100F93079B89
S315000054C012930D9B11930E95B8F1000F3FF49AAE0F
S315000054D0BDF96A20BDF96E309B1A4FEA231B594667
S315000054E01CA8FEF72DFB59461FA8FEF729FB1798A7
S315000054F05946FEF725FB13985946FEF721FB82E62F
S315000055000A9A2F2A03DC369A42F00102369209994A
S31500005510369A2F2902F0030240F3B480033A18BFEB
S315000055200122520008921CE501F0FEFB089B022BAB
S315000055307FF47FAFBDF83C50BDF84410BDF848205D
S3150000554000234E19491B18460F3661F30F03A9189D
S31500005550521B62F31F4366F30F0001F10F0262F361
S315000055601F4020F00F1023F00F13199018A92046A2
S31500005570189303F085F9002840F0C2800C9B002B9D
S315000055803FF457AF0E9B0D99012BDDE9093208BF99
S315000055901346389A03922046379A00934FF0010437
S315000055A0079B029218BF4B46109A019408BF0A4601
S315000055B05146FFF7F9FA3CE7089902293FF43EAE57
S315000055C0B5051C990FD41D9D1E98BAF914702D01AE
S315000055D0000195FBF7F590FBF7F0CDE91D500901A9
S315000055E091FBF7F11C9170053FF529AE20981F9DA0
S315000055F0BAF914C00701219897FBFCF72D010601A3
S3150000560095FBFCF596FBFCF61F95CDE9207616E694
S3150000561000220892A5E43DB90A9A1C9B1203A2F542
S31500005620803203EB62031C93369B990758D4099A80
S315000056301F9B1203A2F5803203EB620351462046FC
S315000056401F9301F0A9F8DAF8286161E50F9B009332
S3150000565022AB724618461793CDF804A00E9BFEF7B0
S3150000566083F9BDF86A20BDF86810149BB21A691A4E
S31500005670CDE9003A25A8139B139012B209B2FEF7A2
S3150000568073F92DE542F002023699033A18BF01225A
S3150000569041F0020152003691089262E4DDE90912F6
S315000056A08A4224DC099A42F34F020F9201220E929B
S315000056B028AA03EB430302EB8303303B01220C923F
S315000056C093E80700379B1AAD83E8070003CD389BA4
S315000056D01860596092E509019C4691FBF0F339E5A3
S315000056E05146204601F058F8DAF8286110E55310C3
S315000056F00F93079B12930D9B11930E950123D7E7EA
S31500005700129ABDF962300F9DD31A1BB2119A0093FB
S31500005710BDF9603029B2D31A00221BB20191CDE93E
S315000057200322029251462046FCF768FD2B460F33B2
S315000057301B090B93B8F1000F00F02C810E9928AAD3
S3150000574001EB410302EB8303249A5242249253F85D
S31500005750282C524243F8282C279BBDF968205B422F
S315000057602793BDF960309B1A4FEA2318BDF96A20CA
S31500005770BDF962309B1ACBEB231B4B000893002329
S3150000578018AA5146204600F071FB002318AA51467C
S31500005790204602F093F9DDE92225249BD4F8B801CE
S315000057A008FB052203FB0B22D4F8BC31013B06267D
S315000057B000F10801002BC4F8B811C0E90062C4F872
S315000057C0BC3106DCD4F8C03120469847D4E96E13C4
S315000057D0239D013B01F108020C20002BC4F8B821DF
S315000057E04D600860C4F8BC3105DCD4F8C0312046F1
S315000057F09847D4E96E232498013B02F10801C4F8C6
S31500005800B811002B50604FF012001060C4F8BC3184
S3150000581005DCD4F8C03120469847D4E96E13DDE99B
S315000058202520279D08FB002205FB0B22013B01F1E9
S315000058300805C4F8B851002B4A604FF007020A6009
